{
  "address": "0x5D903992054d61E32dDc3daB743d4B4835a2FF2a",
  "abi": [
    {
      "inputs": [
        {
          "internalType": "contract IOpiumRegistry",
          "name": "opiumRegistry_",
          "type": "address"
        },
        {
          "internalType": "contract IOpiumOnChainPositionsLens",
          "name": "opiumLens_",
          "type": "address"
        },
        {
          "internalType": "address",
          "name": "signMessageLib_",
          "type": "address"
        },
        {
          "internalType": "address",
          "name": "auctionHelperContract_",
          "type": "address"
        },
        {
          "internalType": "address",
          "name": "limitOrderProtocol_",
          "type": "address"
        },
        {
          "internalType": "contract IRegistryAndZodiacModule",
          "name": "registryModule_",
          "type": "address"
        },
        {
          "internalType": "address",
          "name": "owner_",
          "type": "address"
        },
        {
          "internalType": "address",
          "name": "advisor_",
          "type": "address"
        }
      ],
      "stateMutability": "nonpayable",
      "type": "constructor"
    },
    {
      "anonymous": false,
      "inputs": [
        {
          "components": [
            {
              "internalType": "contract IERC20",
              "name": "sellingToken",
              "type": "address"
            },
            {
              "internalType": "contract IERC20",
              "name": "purchasingToken",
              "type": "address"
            },
            {
              "internalType": "uint256",
              "name": "sellingAmount",
              "type": "uint256"
            },
            {
              "internalType": "enum UsingOpiumAuctionV2.PricingFunction",
              "name": "pricingFunction",
              "type": "uint8"
            },
            {
              "internalType": "uint256[]",
              "name": "pricingFunctionParams",
              "type": "uint256[]"
            },
            {
              "internalType": "enum UsingOpiumAuctionV2.PricingDirection",
              "name": "pricingDirection",
              "type": "uint8"
            },
            {
              "internalType": "bool",
              "name": "partialFill",
              "type": "bool"
            },
            {
              "internalType": "uint256",
              "name": "minPurchasingAmount",
              "type": "uint256"
            },
            {
              "internalType": "uint256",
              "name": "maxPurchasingAmount",
              "type": "uint256"
            },
            {
              "internalType": "uint256",
              "name": "startedAt",
              "type": "uint256"
            },
            {
              "internalType": "uint256",
              "name": "endedAt",
              "type": "uint256"
            },
            {
              "internalType": "uint256",
              "name": "salt",
              "type": "uint256"
            }
          ],
          "indexed": false,
          "internalType": "struct UsingOpiumAuctionV2.AuctionOrder",
          "name": "auctionOrder",
          "type": "tuple"
        }
      ],
      "name": "AuctionCancelled",
      "type": "event"
    },
    {
      "anonymous": false,
      "inputs": [
        {
          "components": [
            {
              "internalType": "contract IERC20",
              "name": "sellingToken",
              "type": "address"
            },
            {
              "internalType": "contract IERC20",
              "name": "purchasingToken",
              "type": "address"
            },
            {
              "internalType": "uint256",
              "name": "sellingAmount",
              "type": "uint256"
            },
            {
              "internalType": "enum UsingOpiumAuctionV2.PricingFunction",
              "name": "pricingFunction",
              "type": "uint8"
            },
            {
              "internalType": "uint256[]",
              "name": "pricingFunctionParams",
              "type": "uint256[]"
            },
            {
              "internalType": "enum UsingOpiumAuctionV2.PricingDirection",
              "name": "pricingDirection",
              "type": "uint8"
            },
            {
              "internalType": "bool",
              "name": "partialFill",
              "type": "bool"
            },
            {
              "internalType": "uint256",
              "name": "minPurchasingAmount",
              "type": "uint256"
            },
            {
              "internalType": "uint256",
              "name": "maxPurchasingAmount",
              "type": "uint256"
            },
            {
              "internalType": "uint256",
              "name": "startedAt",
              "type": "uint256"
            },
            {
              "internalType": "uint256",
              "name": "endedAt",
              "type": "uint256"
            },
            {
              "internalType": "uint256",
              "name": "salt",
              "type": "uint256"
            }
          ],
          "indexed": false,
          "internalType": "struct UsingOpiumAuctionV2.AuctionOrder",
          "name": "auctionOrder",
          "type": "tuple"
        }
      ],
      "name": "AuctionStarted",
      "type": "event"
    },
    {
      "anonymous": false,
      "inputs": [
        {
          "components": [
            {
              "internalType": "uint256",
              "name": "margin",
              "type": "uint256"
            },
            {
              "internalType": "uint256",
              "name": "endTime",
              "type": "uint256"
            },
            {
              "internalType": "uint256[]",
              "name": "params",
              "type": "uint256[]"
            },
            {
              "internalType": "address",
              "name": "oracleId",
              "type": "address"
            },
            {
              "internalType": "address",
              "name": "token",
              "type": "address"
            },
            {
              "internalType": "address",
              "name": "syntheticId",
              "type": "address"
            }
          ],
          "indexed": false,
          "internalType": "struct IOpiumCore.Derivative",
          "name": "derivative",
          "type": "tuple"
        },
        {
          "indexed": false,
          "internalType": "uint256",
          "name": "quantity",
          "type": "uint256"
        },
        {
          "indexed": false,
          "internalType": "bool",
          "name": "long",
          "type": "bool"
        }
      ],
      "name": "OpiumPositionsExecuted",
      "type": "event"
    },
    {
      "anonymous": false,
      "inputs": [
        {
          "components": [
            {
              "internalType": "uint256",
              "name": "margin",
              "type": "uint256"
            },
            {
              "internalType": "uint256",
              "name": "endTime",
              "type": "uint256"
            },
            {
              "internalType": "uint256[]",
              "name": "params",
              "type": "uint256[]"
            },
            {
              "internalType": "address",
              "name": "oracleId",
              "type": "address"
            },
            {
              "internalType": "address",
              "name": "token",
              "type": "address"
            },
            {
              "internalType": "address",
              "name": "syntheticId",
              "type": "address"
            }
          ],
          "indexed": false,
          "internalType": "struct IOpiumCore.Derivative",
          "name": "derivative",
          "type": "tuple"
        },
        {
          "indexed": false,
          "internalType": "uint256",
          "name": "quantity",
          "type": "uint256"
        }
      ],
      "name": "OpiumPositionsMinted",
      "type": "event"
    },
    {
      "anonymous": false,
      "inputs": [
        {
          "components": [
            {
              "internalType": "uint256",
              "name": "margin",
              "type": "uint256"
            },
            {
              "internalType": "uint256",
              "name": "endTime",
              "type": "uint256"
            },
            {
              "internalType": "uint256[]",
              "name": "params",
              "type": "uint256[]"
            },
            {
              "internalType": "address",
              "name": "oracleId",
              "type": "address"
            },
            {
              "internalType": "address",
              "name": "token",
              "type": "address"
            },
            {
              "internalType": "address",
              "name": "syntheticId",
              "type": "address"
            }
          ],
          "indexed": false,
          "internalType": "struct IOpiumCore.Derivative",
          "name": "derivative",
          "type": "tuple"
        },
        {
          "indexed": false,
          "internalType": "uint256",
          "name": "quantity",
          "type": "uint256"
        }
      ],
      "name": "OpiumPositionsRedeemed",
      "type": "event"
    },
    {
      "anonymous": false,
      "inputs": [
        {
          "indexed": true,
          "internalType": "address",
          "name": "previousOwner",
          "type": "address"
        },
        {
          "indexed": true,
          "internalType": "address",
          "name": "newOwner",
          "type": "address"
        }
      ],
      "name": "OwnershipTransferred",
      "type": "event"
    },
    {
      "anonymous": false,
      "inputs": [
        {
          "indexed": true,
          "internalType": "address",
          "name": "previousAddress",
          "type": "address"
        },
        {
          "indexed": true,
          "internalType": "address",
          "name": "newAddress",
          "type": "address"
        }
      ],
      "name": "RegistryModuleSet",
      "type": "event"
    },
    {
      "anonymous": false,
      "inputs": [
        {
          "indexed": true,
          "internalType": "bytes32",
          "name": "role",
          "type": "bytes32"
        },
        {
          "indexed": true,
          "internalType": "bytes32",
          "name": "previousAdminRole",
          "type": "bytes32"
        },
        {
          "indexed": true,
          "internalType": "bytes32",
          "name": "newAdminRole",
          "type": "bytes32"
        }
      ],
      "name": "RoleAdminChanged",
      "type": "event"
    },
    {
      "anonymous": false,
      "inputs": [
        {
          "indexed": true,
          "internalType": "bytes32",
          "name": "role",
          "type": "bytes32"
        },
        {
          "indexed": true,
          "internalType": "address",
          "name": "account",
          "type": "address"
        },
        {
          "indexed": true,
          "internalType": "address",
          "name": "sender",
          "type": "address"
        }
      ],
      "name": "RoleGranted",
      "type": "event"
    },
    {
      "anonymous": false,
      "inputs": [
        {
          "indexed": true,
          "internalType": "bytes32",
          "name": "role",
          "type": "bytes32"
        },
        {
          "indexed": true,
          "internalType": "address",
          "name": "account",
          "type": "address"
        },
        {
          "indexed": true,
          "internalType": "address",
          "name": "sender",
          "type": "address"
        }
      ],
      "name": "RoleRevoked",
      "type": "event"
    },
    {
      "inputs": [],
      "name": "ADVISOR_ROLE",
      "outputs": [
        {
          "internalType": "bytes32",
          "name": "",
          "type": "bytes32"
        }
      ],
      "stateMutability": "view",
      "type": "function"
    },
    {
      "inputs": [],
      "name": "BASE",
      "outputs": [
        {
          "internalType": "uint256",
          "name": "",
          "type": "uint256"
        }
      ],
      "stateMutability": "view",
      "type": "function"
    },
    {
      "inputs": [],
      "name": "DEFAULT_ADMIN_ROLE",
      "outputs": [
        {
          "internalType": "bytes32",
          "name": "",
          "type": "bytes32"
        }
      ],
      "stateMutability": "view",
      "type": "function"
    },
    {
      "inputs": [],
      "name": "auctionAmplifier",
      "outputs": [
        {
          "internalType": "uint256",
          "name": "",
          "type": "uint256"
        }
      ],
      "stateMutability": "view",
      "type": "function"
    },
    {
      "inputs": [],
      "name": "auctionDuration",
      "outputs": [
        {
          "internalType": "uint256",
          "name": "",
          "type": "uint256"
        }
      ],
      "stateMutability": "view",
      "type": "function"
    },
    {
      "inputs": [],
      "name": "auctionHelperContract",
      "outputs": [
        {
          "internalType": "address",
          "name": "",
          "type": "address"
        }
      ],
      "stateMutability": "view",
      "type": "function"
    },
    {
      "inputs": [],
      "name": "auctionMaxPrice",
      "outputs": [
        {
          "internalType": "uint256",
          "name": "",
          "type": "uint256"
        }
      ],
      "stateMutability": "view",
      "type": "function"
    },
    {
      "inputs": [],
      "name": "auctionMinPrice",
      "outputs": [
        {
          "internalType": "uint256",
          "name": "",
          "type": "uint256"
        }
      ],
      "stateMutability": "view",
      "type": "function"
    },
    {
      "inputs": [
        {
          "components": [
            {
              "internalType": "contract IERC20",
              "name": "sellingToken",
              "type": "address"
            },
            {
              "internalType": "contract IERC20",
              "name": "purchasingToken",
              "type": "address"
            },
            {
              "internalType": "uint256",
              "name": "sellingAmount",
              "type": "uint256"
            },
            {
              "internalType": "enum UsingOpiumAuctionV2.PricingFunction",
              "name": "pricingFunction",
              "type": "uint8"
            },
            {
              "internalType": "uint256[]",
              "name": "pricingFunctionParams",
              "type": "uint256[]"
            },
            {
              "internalType": "enum UsingOpiumAuctionV2.PricingDirection",
              "name": "pricingDirection",
              "type": "uint8"
            },
            {
              "internalType": "bool",
              "name": "partialFill",
              "type": "bool"
            },
            {
              "internalType": "uint256",
              "name": "minPurchasingAmount",
              "type": "uint256"
            },
            {
              "internalType": "uint256",
              "name": "maxPurchasingAmount",
              "type": "uint256"
            },
            {
              "internalType": "uint256",
              "name": "startedAt",
              "type": "uint256"
            },
            {
              "internalType": "uint256",
              "name": "endedAt",
              "type": "uint256"
            },
            {
              "internalType": "uint256",
              "name": "salt",
              "type": "uint256"
            }
          ],
          "internalType": "struct UsingOpiumAuctionV2.AuctionOrder",
          "name": "auctionOrder_",
          "type": "tuple"
        },
        {
          "internalType": "address",
          "name": "maker_",
          "type": "address"
        },
        {
          "internalType": "uint256",
          "name": "nonce_",
          "type": "uint256"
        }
      ],
      "name": "auctionToLimitOrder",
      "outputs": [
        {
          "components": [
            {
              "internalType": "uint256",
              "name": "salt",
              "type": "uint256"
            },
            {
              "internalType": "address",
              "name": "makerAsset",
              "type": "address"
            },
            {
              "internalType": "address",
              "name": "takerAsset",
              "type": "address"
            },
            {
              "internalType": "address",
              "name": "maker",
              "type": "address"
            },
            {
              "internalType": "address",
              "name": "receiver",
              "type": "address"
            },
            {
              "internalType": "address",
              "name": "allowedSender",
              "type": "address"
            },
            {
              "internalType": "uint256",
              "name": "makingAmount",
              "type": "uint256"
            },
            {
              "internalType": "uint256",
              "name": "takingAmount",
              "type": "uint256"
            },
            {
              "internalType": "bytes",
              "name": "makerAssetData",
              "type": "bytes"
            },
            {
              "internalType": "bytes",
              "name": "takerAssetData",
              "type": "bytes"
            },
            {
              "internalType": "bytes",
              "name": "getMakerAmount",
              "type": "bytes"
            },
            {
              "internalType": "bytes",
              "name": "getTakerAmount",
              "type": "bytes"
            },
            {
              "internalType": "bytes",
              "name": "predicate",
              "type": "bytes"
            },
            {
              "internalType": "bytes",
              "name": "permit",
              "type": "bytes"
            },
            {
              "internalType": "bytes",
              "name": "interaction",
              "type": "bytes"
            }
          ],
          "internalType": "struct Types.Order",
          "name": "order",
          "type": "tuple"
        }
      ],
      "stateMutability": "view",
      "type": "function"
    },
    {
      "inputs": [],
      "name": "availableQuantity",
      "outputs": [
        {
          "internalType": "uint256",
          "name": "",
          "type": "uint256"
        }
      ],
      "stateMutability": "view",
      "type": "function"
    },
    {
      "inputs": [
        {
          "components": [
            {
              "internalType": "contract IERC20",
              "name": "sellingToken",
              "type": "address"
            },
            {
              "internalType": "contract IERC20",
              "name": "purchasingToken",
              "type": "address"
            },
            {
              "internalType": "uint256",
              "name": "sellingAmount",
              "type": "uint256"
            },
            {
              "internalType": "enum UsingOpiumAuctionV2.PricingFunction",
              "name": "pricingFunction",
              "type": "uint8"
            },
            {
              "internalType": "uint256[]",
              "name": "pricingFunctionParams",
              "type": "uint256[]"
            },
            {
              "internalType": "enum UsingOpiumAuctionV2.PricingDirection",
              "name": "pricingDirection",
              "type": "uint8"
            },
            {
              "internalType": "bool",
              "name": "partialFill",
              "type": "bool"
            },
            {
              "internalType": "uint256",
              "name": "minPurchasingAmount",
              "type": "uint256"
            },
            {
              "internalType": "uint256",
              "name": "maxPurchasingAmount",
              "type": "uint256"
            },
            {
              "internalType": "uint256",
              "name": "startedAt",
              "type": "uint256"
            },
            {
              "internalType": "uint256",
              "name": "endedAt",
              "type": "uint256"
            },
            {
              "internalType": "uint256",
              "name": "salt",
              "type": "uint256"
            }
          ],
          "internalType": "struct UsingOpiumAuctionV2.AuctionOrder",
          "name": "auctionOrder_",
          "type": "tuple"
        }
      ],
      "name": "cancelAuction",
      "outputs": [],
      "stateMutability": "nonpayable",
      "type": "function"
    },
    {
      "inputs": [],
      "name": "derivative",
      "outputs": [
        {
          "internalType": "uint256",
          "name": "margin",
          "type": "uint256"
        },
        {
          "internalType": "uint256",
          "name": "endTime",
          "type": "uint256"
        },
        {
          "internalType": "address",
          "name": "oracleId",
          "type": "address"
        },
        {
          "internalType": "address",
          "name": "token",
          "type": "address"
        },
        {
          "internalType": "address",
          "name": "syntheticId",
          "type": "address"
        }
      ],
      "stateMutability": "view",
      "type": "function"
    },
    {
      "inputs": [],
      "name": "execute",
      "outputs": [],
      "stateMutability": "nonpayable",
      "type": "function"
    },
    {
      "inputs": [],
      "name": "getAuctionMaxPrice",
      "outputs": [
        {
          "internalType": "uint256",
          "name": "",
          "type": "uint256"
        }
      ],
      "stateMutability": "view",
      "type": "function"
    },
    {
      "inputs": [],
      "name": "getAuctionMinPrice",
      "outputs": [
        {
          "internalType": "uint256",
          "name": "",
          "type": "uint256"
        }
      ],
      "stateMutability": "view",
      "type": "function"
    },
    {
      "inputs": [
        {
          "components": [
            {
              "internalType": "uint256",
              "name": "margin",
              "type": "uint256"
            },
            {
              "internalType": "uint256",
              "name": "endTime",
              "type": "uint256"
            },
            {
              "internalType": "uint256[]",
              "name": "params",
              "type": "uint256[]"
            },
            {
              "internalType": "address",
              "name": "oracleId",
              "type": "address"
            },
            {
              "internalType": "address",
              "name": "token",
              "type": "address"
            },
            {
              "internalType": "address",
              "name": "syntheticId",
              "type": "address"
            }
          ],
          "internalType": "struct IOpiumCore.Derivative",
          "name": "derivative_",
          "type": "tuple"
        }
      ],
      "name": "getAvailableQuantity",
      "outputs": [
        {
          "internalType": "uint256",
          "name": "availableQuantity",
          "type": "uint256"
        },
        {
          "internalType": "uint256",
          "name": "requiredMargin",
          "type": "uint256"
        }
      ],
      "stateMutability": "view",
      "type": "function"
    },
    {
      "inputs": [],
      "name": "getDerivative",
      "outputs": [
        {
          "components": [
            {
              "internalType": "uint256",
              "name": "margin",
              "type": "uint256"
            },
            {
              "internalType": "uint256",
              "name": "endTime",
              "type": "uint256"
            },
            {
              "internalType": "uint256[]",
              "name": "params",
              "type": "uint256[]"
            },
            {
              "internalType": "address",
              "name": "oracleId",
              "type": "address"
            },
            {
              "internalType": "address",
              "name": "token",
              "type": "address"
            },
            {
              "internalType": "address",
              "name": "syntheticId",
              "type": "address"
            }
          ],
          "internalType": "struct IOpiumCore.Derivative",
          "name": "",
          "type": "tuple"
        }
      ],
      "stateMutability": "view",
      "type": "function"
    },
    {
      "inputs": [],
      "name": "getNextStrikePrice",
      "outputs": [
        {
          "internalType": "uint256",
          "name": "nextStrikePrice",
          "type": "uint256"
        }
      ],
      "stateMutability": "view",
      "type": "function"
    },
    {
      "inputs": [],
      "name": "getOpiumLens",
      "outputs": [
        {
          "internalType": "contract IOpiumOnChainPositionsLens",
          "name": "",
          "type": "address"
        }
      ],
      "stateMutability": "view",
      "type": "function"
    },
    {
      "inputs": [],
      "name": "getOpiumRegistry",
      "outputs": [
        {
          "internalType": "contract IOpiumRegistry",
          "name": "",
          "type": "address"
        }
      ],
      "stateMutability": "view",
      "type": "function"
    },
    {
      "inputs": [],
      "name": "getRegistryModule",
      "outputs": [
        {
          "internalType": "contract IRegistryAndZodiacModule",
          "name": "",
          "type": "address"
        }
      ],
      "stateMutability": "view",
      "type": "function"
    },
    {
      "inputs": [
        {
          "internalType": "bytes32",
          "name": "role",
          "type": "bytes32"
        }
      ],
      "name": "getRoleAdmin",
      "outputs": [
        {
          "internalType": "bytes32",
          "name": "",
          "type": "bytes32"
        }
      ],
      "stateMutability": "view",
      "type": "function"
    },
    {
      "inputs": [
        {
          "internalType": "bytes32",
          "name": "role",
          "type": "bytes32"
        },
        {
          "internalType": "address",
          "name": "account",
          "type": "address"
        }
      ],
      "name": "grantRole",
      "outputs": [],
      "stateMutability": "nonpayable",
      "type": "function"
    },
    {
      "inputs": [
        {
          "internalType": "bytes32",
          "name": "role",
          "type": "bytes32"
        },
        {
          "internalType": "address",
          "name": "account",
          "type": "address"
        }
      ],
      "name": "hasRole",
      "outputs": [
        {
          "internalType": "bool",
          "name": "",
          "type": "bool"
        }
      ],
      "stateMutability": "view",
      "type": "function"
    },
    {
      "inputs": [
        {
          "components": [
            {
              "internalType": "uint256",
              "name": "salt",
              "type": "uint256"
            },
            {
              "internalType": "address",
              "name": "makerAsset",
              "type": "address"
            },
            {
              "internalType": "address",
              "name": "takerAsset",
              "type": "address"
            },
            {
              "internalType": "address",
              "name": "maker",
              "type": "address"
            },
            {
              "internalType": "address",
              "name": "receiver",
              "type": "address"
            },
            {
              "internalType": "address",
              "name": "allowedSender",
              "type": "address"
            },
            {
              "internalType": "uint256",
              "name": "makingAmount",
              "type": "uint256"
            },
            {
              "internalType": "uint256",
              "name": "takingAmount",
              "type": "uint256"
            },
            {
              "internalType": "bytes",
              "name": "makerAssetData",
              "type": "bytes"
            },
            {
              "internalType": "bytes",
              "name": "takerAssetData",
              "type": "bytes"
            },
            {
              "internalType": "bytes",
              "name": "getMakerAmount",
              "type": "bytes"
            },
            {
              "internalType": "bytes",
              "name": "getTakerAmount",
              "type": "bytes"
            },
            {
              "internalType": "bytes",
              "name": "predicate",
              "type": "bytes"
            },
            {
              "internalType": "bytes",
              "name": "permit",
              "type": "bytes"
            },
            {
              "internalType": "bytes",
              "name": "interaction",
              "type": "bytes"
            }
          ],
          "internalType": "struct Types.Order",
          "name": "order",
          "type": "tuple"
        }
      ],
      "name": "hashOrder",
      "outputs": [
        {
          "internalType": "bytes32",
          "name": "",
          "type": "bytes32"
        }
      ],
      "stateMutability": "view",
      "type": "function"
    },
    {
      "inputs": [
        {
          "internalType": "bytes32",
          "name": "hash",
          "type": "bytes32"
        },
        {
          "internalType": "bytes",
          "name": "signature",
          "type": "bytes"
        }
      ],
      "name": "isValidSignature",
      "outputs": [
        {
          "internalType": "bytes4",
          "name": "",
          "type": "bytes4"
        }
      ],
      "stateMutability": "view",
      "type": "function"
    },
    {
      "inputs": [],
      "name": "limitOrderProtocol",
      "outputs": [
        {
          "internalType": "address",
          "name": "",
          "type": "address"
        }
      ],
      "stateMutability": "view",
      "type": "function"
    },
    {
      "inputs": [],
      "name": "longPositionAddress",
      "outputs": [
        {
          "internalType": "address",
          "name": "",
          "type": "address"
        }
      ],
      "stateMutability": "view",
      "type": "function"
    },
    {
      "inputs": [],
      "name": "mint",
      "outputs": [],
      "stateMutability": "nonpayable",
      "type": "function"
    },
    {
      "inputs": [],
      "name": "owner",
      "outputs": [
        {
          "internalType": "address",
          "name": "",
          "type": "address"
        }
      ],
      "stateMutability": "view",
      "type": "function"
    },
    {
      "inputs": [],
      "name": "rebalance",
      "outputs": [],
      "stateMutability": "nonpayable",
      "type": "function"
    },
    {
      "inputs": [],
      "name": "renounceOwnership",
      "outputs": [],
      "stateMutability": "nonpayable",
      "type": "function"
    },
    {
      "inputs": [
        {
          "internalType": "bytes32",
          "name": "role",
          "type": "bytes32"
        },
        {
          "internalType": "address",
          "name": "account",
          "type": "address"
        }
      ],
      "name": "renounceRole",
      "outputs": [],
      "stateMutability": "nonpayable",
      "type": "function"
    },
    {
      "inputs": [
        {
          "internalType": "bytes32",
          "name": "role",
          "type": "bytes32"
        },
        {
          "internalType": "address",
          "name": "account",
          "type": "address"
        }
      ],
      "name": "revokeRole",
      "outputs": [],
      "stateMutability": "nonpayable",
      "type": "function"
    },
    {
      "inputs": [
        {
          "internalType": "uint256",
          "name": "auctionAmplifier_",
          "type": "uint256"
        }
      ],
      "name": "setAuctionAmplifier",
      "outputs": [],
      "stateMutability": "nonpayable",
      "type": "function"
    },
    {
      "inputs": [
        {
          "internalType": "uint256",
          "name": "auctionDuration_",
          "type": "uint256"
        }
      ],
      "name": "setAuctionDuration",
      "outputs": [],
      "stateMutability": "nonpayable",
      "type": "function"
    },
    {
      "inputs": [
        {
          "internalType": "uint256",
          "name": "auctionMinPrice_",
          "type": "uint256"
        },
        {
          "internalType": "uint256",
          "name": "auctionMaxPrice_",
          "type": "uint256"
        }
      ],
      "name": "setAuctionPrices",
      "outputs": [],
      "stateMutability": "nonpayable",
      "type": "function"
    },
    {
      "inputs": [
        {
          "components": [
            {
              "internalType": "uint256",
              "name": "margin",
              "type": "uint256"
            },
            {
              "internalType": "uint256",
              "name": "endTime",
              "type": "uint256"
            },
            {
              "internalType": "uint256[]",
              "name": "params",
              "type": "uint256[]"
            },
            {
              "internalType": "address",
              "name": "oracleId",
              "type": "address"
            },
            {
              "internalType": "address",
              "name": "token",
              "type": "address"
            },
            {
              "internalType": "address",
              "name": "syntheticId",
              "type": "address"
            }
          ],
          "internalType": "struct IOpiumCore.Derivative",
          "name": "derivative_",
          "type": "tuple"
        }
      ],
      "name": "setDerivative",
      "outputs": [],
      "stateMutability": "nonpayable",
      "type": "function"
    },
    {
      "inputs": [
        {
          "internalType": "contract IRegistryAndZodiacModule",
          "name": "registryModule_",
          "type": "address"
        }
      ],
      "name": "setRegistryModule",
      "outputs": [],
      "stateMutability": "nonpayable",
      "type": "function"
    },
    {
      "inputs": [
        {
          "internalType": "uint256",
          "name": "strikePriceDelta_",
          "type": "uint256"
        }
      ],
      "name": "setStrikePriceDelta",
      "outputs": [],
      "stateMutability": "nonpayable",
      "type": "function"
    },
    {
      "inputs": [
        {
          "internalType": "uint256",
          "name": "strikePriceDeltaLimit_",
          "type": "uint256"
        }
      ],
      "name": "setStrikePriceDeltaLimit",
      "outputs": [],
      "stateMutability": "nonpayable",
      "type": "function"
    },
    {
      "inputs": [
        {
          "internalType": "uint256",
          "name": "strikePriceRounding_",
          "type": "uint256"
        }
      ],
      "name": "setStrikePriceRounding",
      "outputs": [],
      "stateMutability": "nonpayable",
      "type": "function"
    },
    {
      "inputs": [],
      "name": "signMessageLib",
      "outputs": [
        {
          "internalType": "address",
          "name": "",
          "type": "address"
        }
      ],
      "stateMutability": "view",
      "type": "function"
    },
    {
      "inputs": [],
      "name": "startAuction",
      "outputs": [],
      "stateMutability": "nonpayable",
      "type": "function"
    },
    {
      "inputs": [],
      "name": "strikePrice",
      "outputs": [
        {
          "internalType": "uint256",
          "name": "",
          "type": "uint256"
        }
      ],
      "stateMutability": "view",
      "type": "function"
    },
    {
      "inputs": [],
      "name": "strikePriceDelta",
      "outputs": [
        {
          "internalType": "uint256",
          "name": "",
          "type": "uint256"
        }
      ],
      "stateMutability": "view",
      "type": "function"
    },
    {
      "inputs": [],
      "name": "strikePriceDeltaLimit",
      "outputs": [
        {
          "internalType": "uint256",
          "name": "",
          "type": "uint256"
        }
      ],
      "stateMutability": "view",
      "type": "function"
    },
    {
      "inputs": [],
      "name": "strikePriceRounding",
      "outputs": [
        {
          "internalType": "uint256",
          "name": "",
          "type": "uint256"
        }
      ],
      "stateMutability": "view",
      "type": "function"
    },
    {
      "inputs": [
        {
          "internalType": "bytes4",
          "name": "interfaceId",
          "type": "bytes4"
        }
      ],
      "name": "supportsInterface",
      "outputs": [
        {
          "internalType": "bool",
          "name": "",
          "type": "bool"
        }
      ],
      "stateMutability": "view",
      "type": "function"
    },
    {
      "inputs": [
        {
          "internalType": "address",
          "name": "newAdvisor_",
          "type": "address"
        }
      ],
      "name": "transferAdvisory",
      "outputs": [],
      "stateMutability": "nonpayable",
      "type": "function"
    },
    {
      "inputs": [
        {
          "internalType": "address",
          "name": "newOwner",
          "type": "address"
        }
      ],
      "name": "transferOwnership",
      "outputs": [],
      "stateMutability": "nonpayable",
      "type": "function"
    }
  ],
  "transactionHash": "0x5c663b7196e9024ba9e49cfeefbbb9be8a4aa8975b2660240d735c8edee9db9c",
  "args": [
    "0x17b6ffe276e8A4a299a5a87a656aFc5b8FA3ee4a",
    "0x33afAaA35df82D56833B7EEacb2b65Eb805AC774",
    "0xA65387F16B013cf2Af4605Ad8aA5ec25a2cbA3a2",
    "0x06eb4bCc14b8C1664a2d4e2CdE8fA2F992332fCd",
    "0x94bc2a1c732bcad7343b25af48385fe76e08734f",
    "0xe0CBf4F7B0BA46c4c35CDe49A20E0388f9e9C2d1",
    "0xf70a970cd80098cd6de31ae6c0bb3637ae27de56",
    "0xd8166138Eda6dEFD2Bf2403d7637F41CE01C4BbE"
  ],
  "numDeployments": 1,
  "solcInputHash": "322501c00a7a31bf5f666aea4d1097c4",
  "bytecode": "0x61018060405267016345785d8a0000600d5567016345785d8a0000600e5568056bc75e2d63100000600f556109606010556601c6bf5263400060115566071afd498d0000601255600a6013553480156200005857600080fd5b5060405162005915380380620059158339810160408190526200007b9162000562565b604080518082018252601a81527f31696e6368204c696d6974204f726465722050726f746f636f6c0000000000006020808301918252835180850190945260018452601960f91b90840152815190206001600160a01b0387166101205260c08190527fad7c5bef027816a800da1736444fb58a807ef4c9603b7848673f7e3a68eb14a560e08190524660a052859385938b938e938e938b9389938f938f938493849390927f8b73c3c69bb8fe3d512ecc4cf759cc79239f7b179b0ffacaa9a75d522b39400f6200019581848489604080516020808201969096528082019490945260608401929092524660808401526001600160a01b031660a0808401919091528151808403909101815260c09092019052805191012090565b60805261010052505050506001600160a01b0391821661014052509190911661016052506001600055620001c93362000282565b620001d482620002d4565b620001df81620003c7565b5050600380546001600160a01b0319166001600160a01b038416179055600480546001600160a01b0319166001600160a01b0383161790555050600580546001600160a01b0319166001600160a01b03929092169190911790556200024660008362000498565b620002727f9c1ca198f61ac1647c38f20b6678649f8e87b7e06309094d812edd1e9119d3098262000498565b5050505050505050505062000623565b600180546001600160a01b038381166001600160a01b0319831681179093556040519116919082907f8be0079c531659141344cd1fd0a4f28419497f9722a3daafe3b4186f6b6457e090600090a35050565b600260005414156200032d5760405162461bcd60e51b815260206004820152601f60248201527f5265656e7472616e637947756172643a207265656e7472616e742063616c6c0060448201526064015b60405180910390fd5b60026000556001600160a01b038116620003705760405162461bcd60e51b8152602060048201526003602482015262524d3160e81b604482015260640162000324565b600280546001600160a01b038381166001600160a01b0319831681179093556040519116919082907f8a94a9087718f0e83aa163e33a15d3edef3019f120f78e93fba55ecf79750c5d90600090a350506001600055565b6001546001600160a01b03163314620004235760405162461bcd60e51b815260206004820181905260248201527f4f776e61626c653a2063616c6c6572206973206e6f7420746865206f776e6572604482015260640162000324565b6001600160a01b0381166200048a5760405162461bcd60e51b815260206004820152602660248201527f4f776e61626c653a206e6577206f776e657220697320746865207a65726f206160448201526564647265737360d01b606482015260840162000324565b620004958162000282565b50565b620004a48282620004a8565b5050565b60008281526006602090815260408083206001600160a01b038516845290915290205460ff16620004a45760008281526006602090815260408083206001600160a01b03851684529091529020805460ff19166001179055620005083390565b6001600160a01b0316816001600160a01b0316837f2f8788117e7eff1d82e926ec794901d17c78024a50270940304540a733656f0d60405160405180910390a45050565b6001600160a01b03811681146200049557600080fd5b600080600080600080600080610100898b0312156200058057600080fd5b88516200058d816200054c565b60208a0151909850620005a0816200054c565b60408a0151909750620005b3816200054c565b60608a0151909650620005c6816200054c565b60808a0151909550620005d9816200054c565b60a08a0151909450620005ec816200054c565b60c08a0151909350620005ff816200054c565b60e08a015190925062000612816200054c565b809150509295985092959890939650565b60805160a05160c05160e05161010051610120516101405161016051615254620006c16000396000818161060401528181611079015281816125c8015281816127c20152818161281a0152818161286e0152612a4d0152600081816105620152818161358601526138c601526000613bd401526000613b7101526000613bb301526000613b9201526000613b2101526000613b4a01526152546000f3fe608060405234801561001057600080fd5b50600436106102f15760003560e01c80636b64c7691161019d578063c52987cf116100e9578063e38ed592116100a2578063f2fde38b1161007c578063f2fde38b146106b3578063f936b649146106c6578063fa1cb9f2146106cf578063fd7af4aa146106e257600080fd5b8063e38ed59214610688578063e765cb441461069b578063ec342ad0146106a457600080fd5b8063c52987cf1461062f578063ce07948f14610638578063ce1a52d214610640578063d282bb4c14610651578063d547741f14610662578063dfe274a91461067557600080fd5b806391d1485411610156578063af41733911610130578063af417339146105db578063bd17deb2146105ee578063c01ded66146105ff578063c08e1fb51461062657600080fd5b806391d14854146105ad578063a217fddf146105c0578063a497e674146105c857600080fd5b80636b64c769146105305780636d4a681a14610538578063715018a61461054d5780637d7c2a1c146105555780637f94dd331461055d5780638da5cb5b1461059c57600080fd5b8063211212861161025c5780634461a9ef1161021557806358cd843e116101ef57806358cd843e146104ec5780635a5d7e18146104f55780635fd6102014610515578063614619541461052857600080fd5b80634461a9ef146104c85780634a6702c4146104d157806352125d27146104e457600080fd5b8063211212861461045b578063248a9ca3146104635780632b390349146104865780632f2ff15d1461049957806336568abe146104ac57806338dc6f86146104bf57600080fd5b80631626ba7e116102ae5780631626ba7e1461038f5780631695d51e146103bb57806316de97f6146103ce57806317cfb41d146103e15780631985a89f146103f457806320c995911461045257600080fd5b806301ffc9a7146102f657806304233f061461031e5780630531d3d81461033357806306792f551461035b5780630cbf54c81461037e5780631249c58b14610387575b600080fd5b610309610304366004613e6a565b6106f5565b60405190151581526020015b60405180910390f35b61033161032c366004613e94565b61072c565b005b610346610341366004614028565b610751565b60408051928352602083019190915201610315565b6103706000805160206151ff83398151915281565b604051908152602001610315565b61037060105481565b610331610938565b6103a261039d366004614168565b610ca2565b6040516001600160e01b03199091168152602001610315565b6103316103c93660046141ae565b610ce9565b6103316103dc3660046141cb565b610d31565b6103316103ef366004613e94565b610d5a565b600754600854600a54600b54600c5461041c9493926001600160a01b03908116928116911685565b6040805195865260208601949094526001600160a01b03928316938501939093528116606084015216608082015260a001610315565b610370600f5481565b601254610370565b610370610471366004613e94565b60009081526006602052604090206001015490565b610331610494366004614028565b610d7b565b6103316104a73660046141ed565b610db1565b6103316104ba3660046141ed565b610dd6565b61037060125481565b610370600d5481565b6103316104df366004613e94565b610e50565b610370610e71565b610370600e5481565b610508610503366004614324565b610f9d565b60405161031591906143d5565b6103316105233660046141ae565b611100565b610331611133565b61033161130b565b610540611681565b60405161031591906145e8565b610331611778565b6103316117ae565b6105847f000000000000000000000000000000000000000000000000000000000000000081565b6040516001600160a01b039091168152602001610315565b6001546001600160a01b0316610584565b6103096105bb3660046141ed565b6119b8565b610370600081565b6103316105d6366004613e94565b6119e3565b601554610584906001600160a01b031681565b6004546001600160a01b0316610584565b6105847f000000000000000000000000000000000000000000000000000000000000000081565b61037060165481565b61037060145481565b601154610370565b6002546001600160a01b0316610584565b6003546001600160a01b0316610584565b6103316106703660046141ed565b611a04565b600554610584906001600160a01b031681565b6103316106963660046145fb565b611a29565b61037060115481565b610370670de0b6b3a764000081565b6103316106c13660046141ae565b611a4a565b61037060135481565b6103706106dd36600461462f565b611ae2565b6103316106f0366004613e94565b611bdf565b60006001600160e01b03198216637965db0b60e01b148061072657506301ffc9a760e01b6001600160e01b03198316145b92915050565b6000805160206151ff83398151915261074481611c12565b61074d82611c1c565b5050565b6000806000600260009054906101000a90046001600160a01b03166001600160a01b031663a3b1b6ec6040518163ffffffff1660e01b815260040160806040518083038186803b1580156107a457600080fd5b505afa1580156107b8573d6000803e3d6000fd5b505050506040513d601f19601f820116820180604052508101906107dc9190614802565b600001516001600160a01b0316639b745aec6040518163ffffffff1660e01b815260040160206040518083038186803b15801561081857600080fd5b505afa15801561082c573d6000803e3d6000fd5b505050506040513d601f19601f820116820180604052508101906108509190614886565b905061085a613dec565b8460a001516001600160a01b0316630433fe45866040518263ffffffff1660e01b815260040161088a91906145e8565b604080518083038186803b1580156108a157600080fd5b505afa1580156108b5573d6000803e3d6000fd5b505050506040513d601f19601f820116820180604052508101906108d9919061489f565b602083018190528183526000916108f091906148ef565b905080610905670de0b6b3a764000085614907565b61090f919061493c565b9450670de0b6b3a76400006109248287614907565b61092e919061493c565b9350505050915091565b600260009054906101000a90046001600160a01b03166001600160a01b031663a3b1b6ec6040518163ffffffff1660e01b815260040160806040518083038186803b15801561098657600080fd5b505afa15801561099a573d6000803e3d6000fd5b505050506040513d601f19601f820116820180604052508101906109be9190614802565b602001516001600160a01b0316632f05205c6040518163ffffffff1660e01b815260040160206040518083038186803b1580156109fa57600080fd5b505afa158015610a0e573d6000803e3d6000fd5b505050506040513d601f19601f82011682018060405250810190610a329190614950565b610a695760405162461bcd60e51b815260206004820152600360248201526242533160e81b60448201526064015b60405180910390fd5b60145415610aa25760405162461bcd60e51b8152600401610a609060208082526004908201526327a9a99960e11b604082015260600190565b600254604080516328ec6dbb60e21b815290516000926001600160a01b03169163a3b1b6ec916004808301926080929190829003018186803b158015610ae757600080fd5b505afa158015610afb573d6000803e3d6000fd5b505050506040513d601f19601f82011682018060405250810190610b1f9190614802565b602001519050610b2d610e71565b601481905550806001600160a01b03166333d052ff6040518163ffffffff1660e01b815260040160206040518083038186803b158015610b6c57600080fd5b505afa158015610b80573d6000803e3d6000fd5b505050506040513d601f19601f82011682018060405250810190610ba49190614886565b60085560145460098054600090610bbd57610bbd6148c3565b9060005260206000200181905550610c7b60076040518060c0016040529081600082015481526020016001820154815260200160028201805480602002602001604051908101604052809291908181526020018280548015610c3e57602002820191906000526020600020905b815481526020019060010190808311610c2a575b505050918352505060038201546001600160a01b039081166020830152600483015481166040830152600590920154909116606090910152611c5a565b60165550601580546001600160a01b0319166001600160a01b039290921691909117905550565b60008082806020019051810190610cb991906149b2565b905083610cc582611ae2565b148015610cd0575060015b610cd957600080fd5b50630b135d3f60e11b9392505050565b6000805160206151ff833981519152610d0181611c12565b610d196000805160206151ff8339815191523361229c565b61074d6000805160206151ff83398151915283612303565b6000805160206151ff833981519152610d4981611c12565b50601191909155601255565b505050565b6000805160206151ff833981519152610d7281611c12565b61074d82601355565b6001546001600160a01b03163314610da55760405162461bcd60e51b8152600401610a6090614b69565b610dae81612389565b50565b600082815260066020526040902060010154610dcc81611c12565b610d558383612303565b6001600160a01b0381163314610e465760405162461bcd60e51b815260206004820152602f60248201527f416363657373436f6e74726f6c3a2063616e206f6e6c792072656e6f756e636560448201526e103937b632b9903337b91039b2b63360891b6064820152608401610a60565b61074d828261229c565b6000805160206151ff833981519152610e6881611c12565b61074d82612407565b600080600760030160009054906101000a90046001600160a01b03166001600160a01b031663de2927896040518163ffffffff1660e01b815260040160206040518083038186803b158015610ec557600080fd5b505afa158015610ed9573d6000803e3d6000fd5b505050506040513d601f19601f82011682018060405250810190610efd9190614886565b9050670de0b6b3a7640000600e54670de0b6b3a7640000610f1e91906148ef565b610f289083614907565b610f32919061493c565b91506000600f5483610f449190614b9e565b905060006002600f54610f57919061493c565b600f54908310159150610f6a818661493c565b610f749190614907565b93508015610f8c57600f54610f8990856148ef565b93505b83610f9757600f5493505b50505090565b611043604051806101e001604052806000815260200160006001600160a01b0316815260200160006001600160a01b0316815260200160006001600160a01b0316815260200160006001600160a01b0316815260200160006001600160a01b031681526020016000815260200160008152602001606081526020016060815260200160608152602001606081526020016060815260200160608152602001606081525090565b610160840151815283516001600160a01b03908116602080840191909152850151811660408084019190915284821660608401527f00000000000000000000000000000000000000000000000000000000000000009091166080830152600060a083015284015160c082015261010084015160e08201526110c384612447565b6101408201526110d284612642565b6101608201526110e38484846127f3565b6101808201526110f384846129f6565b6101c08201529392505050565b6001546001600160a01b0316331461112a5760405162461bcd60e51b8152600401610a6090614b69565b610dae81612a96565b600260009054906101000a90046001600160a01b03166001600160a01b031663a3b1b6ec6040518163ffffffff1660e01b815260040160806040518083038186803b15801561118157600080fd5b505afa158015611195573d6000803e3d6000fd5b505050506040513d601f19601f820116820180604052508101906111b99190614802565b602001516001600160a01b031663a06880c06040518163ffffffff1660e01b815260040160206040518083038186803b1580156111f557600080fd5b505afa158015611209573d6000803e3d6000fd5b505050506040513d601f19601f8201168201806040525081019061122d9190614950565b61125f5760405162461bcd60e51b815260206004820152600360248201526221299960e91b6044820152606401610a60565b6040805160c08101825260078054825260085460208084019190915260098054855181840281018401875281815261130496860193909291908301828280156112c757602002820191906000526020600020905b8154815260200190600101908083116112b3575b505050918352505060038201546001600160a01b039081166020830152600483015481166040830152600590920154909116606090910152612b81565b6000601455565b600260009054906101000a90046001600160a01b03166001600160a01b031663a3b1b6ec6040518163ffffffff1660e01b815260040160806040518083038186803b15801561135957600080fd5b505afa15801561136d573d6000803e3d6000fd5b505050506040513d601f19601f820116820180604052508101906113919190614802565b602001516001600160a01b0316632f05205c6040518163ffffffff1660e01b815260040160206040518083038186803b1580156113cd57600080fd5b505afa1580156113e1573d6000803e3d6000fd5b505050506040513d601f19601f820116820180604052508101906114059190614950565b6114375760405162461bcd60e51b815260206004820152600360248201526242533160e81b6044820152606401610a60565b60145461146f5760405162461bcd60e51b8152600401610a60906020808252600490820152634f53533360e01b604082015260600190565b600254604080516328ec6dbb60e21b815290516000926001600160a01b03169163a3b1b6ec916004808301926080929190829003018186803b1580156114b457600080fd5b505afa1580156114c8573d6000803e3d6000fd5b505050506040513d601f19601f820116820180604052508101906114ec9190614802565b60209081015160408051600180825281830190925291935060009282810190803683370190505090506013548160008151811061152b5761152b6148c3565b60209081029190910181019190915260408051610180810182526015546001600160a01b039081168252600b541692810192909252601654908201526000906060810160018152602081018490526040016001815260016020820152604001670de0b6b3a764000061159c60115490565b6016546115a99190614907565b6115b3919061493c565b8152602001670de0b6b3a76400006115ca60125490565b6016546115d79190614907565b6115e1919061493c565b8152602001428152602001601054426115fa91906148ef565b8152602001846001600160a01b0316637d36a4106040518163ffffffff1660e01b815260040160206040518083038186803b15801561163857600080fd5b505afa15801561164c573d6000803e3d6000fd5b505050506040513d601f19601f820116820180604052508101906116709190614bc8565b61ffff1690529050610d55816134a7565b6116d56040518060c0016040528060008152602001600081526020016060815260200160006001600160a01b0316815260200160006001600160a01b0316815260200160006001600160a01b031681525090565b6040805160c08101825260078054825260085460208084019190915260098054855181840281018401875281815294959394938601939283018282801561173b57602002820191906000526020600020905b815481526020019060010190808311611727575b505050918352505060038201546001600160a01b039081166020830152600483015481166040830152600590920154909116606090910152919050565b6001546001600160a01b031633146117a25760405162461bcd60e51b8152600401610a6090614b69565b6117ac600061378f565b565b600260009054906101000a90046001600160a01b03166001600160a01b031663a3b1b6ec6040518163ffffffff1660e01b815260040160806040518083038186803b1580156117fc57600080fd5b505afa158015611810573d6000803e3d6000fd5b505050506040513d601f19601f820116820180604052508101906118349190614802565b602001516001600160a01b031663a06880c06040518163ffffffff1660e01b815260040160206040518083038186803b15801561187057600080fd5b505afa158015611884573d6000803e3d6000fd5b505050506040513d601f19601f820116820180604052508101906118a89190614950565b6118da5760405162461bcd60e51b815260206004820152600360248201526221299960e91b6044820152606401610a60565b600260009054906101000a90046001600160a01b03166001600160a01b031663a3b1b6ec6040518163ffffffff1660e01b815260040160806040518083038186803b15801561192857600080fd5b505afa15801561193c573d6000803e3d6000fd5b505050506040513d601f19601f820116820180604052508101906119609190614802565b600001516001600160a01b0316637d7c2a1c6040518163ffffffff1660e01b8152600401600060405180830381600087803b15801561199e57600080fd5b505af11580156119b2573d6000803e3d6000fd5b50505050565b60009182526006602090815260408084206001600160a01b0393909316845291905290205460ff1690565b6000805160206151ff8339815191526119fb81611c12565b61074d82601055565b600082815260066020526040902060010154611a1f81611c12565b610d55838361229c565b6000805160206151ff833981519152611a4181611c12565b61074d826137e1565b6001546001600160a01b03163314611a745760405162461bcd60e51b8152600401610a6090614b69565b6001600160a01b038116611ad95760405162461bcd60e51b815260206004820152602660248201527f4f776e61626c653a206e6577206f776e657220697320746865207a65726f206160448201526564647265737360d01b6064820152608401610a60565b610dae8161378f565b6040805161010081018252600080825260208201819052918101829052606081018290526080810182905260a0810182905260c0810182905260e08101829052829050611bd87f7b63e94209420c4f6a2a8ca90b36938c948908697db47a5dc7f8e692ead4991a8285610100015180519060200120866101200151805190602001208761014001518051906020012088610160015180519060200120896101800151805190602001208a6101a00151805190602001208b6101c0015180519060200120604051602001611bbd99989796959493929190614bec565b6040516020818303038152906040528051906020012061395e565b9392505050565b6001546001600160a01b03163314611c095760405162461bcd60e51b8152600401610a6090614b69565b610dae81600d55565b610dae81336139ac565b60008111611c555760405162461bcd60e51b8152600401610a60906020808252600490820152634f53533160e01b604082015260600190565b600f55565b6000806000806000611c6b86610751565b6040805180820182526018815277617070726f766528616464726573732c75696e743235362960401b602090910152600354815163050bba6d60e51b815291519395509193506000927f095ea7b334ae44009aa867bfb386f5c3b4b443ac6f0ee573fa91c4608fbadfba926001600160a01b03169163a1774da091600480830192610120929190829003018186803b158015611d0657600080fd5b505afa158015611d1a573d6000803e3d6000fd5b505050506040513d601f19601f82011682018060405250810190611d3e9190614cc5565b608001516040516001600160a01b0390911660248201526044810184905260640160408051601f198184030181529181526020820180516001600160e01b03166001600160e01b03199094169390931790925260025460808a0151925163031d9bbd60e21b81529193506001600160a01b031691630c766ef491611dc791908590600401614d7b565b600060405180830381600087803b158015611de157600080fd5b505af1158015611df5573d6000803e3d6000fd5b50505050604051806080016040528060558152602001615132605591398051906020012087846040518060400160405280600260009054906101000a90046001600160a01b03166001600160a01b0316635aef7de66040518163ffffffff1660e01b815260040160206040518083038186803b158015611e7457600080fd5b505afa158015611e88573d6000803e3d6000fd5b505050506040513d601f19601f82011682018060405250810190611eac9190614d9f565b6001600160a01b03166001600160a01b03168152602001600260009054906101000a90046001600160a01b03166001600160a01b0316635aef7de66040518163ffffffff1660e01b815260040160206040518083038186803b158015611f1157600080fd5b505afa158015611f25573d6000803e3d6000fd5b505050506040513d601f19601f82011682018060405250810190611f499190614d9f565b6001600160a01b03169052604051611f6693929190602401614de8565b60408051601f198184030181529181526020820180516001600160e01b03166001600160e01b031990941693909317909252600254600354835163050bba6d60e51b815293519294506001600160a01b0391821693630c766ef493919092169163a1774da091600480830192610120929190829003018186803b158015611fec57600080fd5b505afa158015612000573d6000803e3d6000fd5b505050506040513d601f19601f820116820180604052508101906120249190614cc5565b516040516001600160e01b031960e084901b16815261204891908590600401614d7b565b600060405180830381600087803b15801561206257600080fd5b505af1158015612076573d6000803e3d6000fd5b50506004805460405163b614f13160e01b8152600094508493506001600160a01b039091169163b614f131916120ae918d91016145e8565b604080518083038186803b1580156120c557600080fd5b505afa1580156120d9573d6000803e3d6000fd5b505050506040513d601f19601f820116820180604052508101906120fd9190614e10565b915091506000600260009054906101000a90046001600160a01b03166001600160a01b031663a3b1b6ec6040518163ffffffff1660e01b815260040160806040518083038186803b15801561215157600080fd5b505afa158015612165573d6000803e3d6000fd5b505050506040513d601f19601f820116820180604052508101906121899190614802565b5160405163714f2de760e01b81526001600160a01b038581166004830152600160248301529192509082169063714f2de790604401600060405180830381600087803b1580156121d857600080fd5b505af11580156121ec573d6000803e3d6000fd5b505060405163714f2de760e01b81526001600160a01b038581166004830152600160248301528416925063714f2de79150604401600060405180830381600087803b15801561223a57600080fd5b505af115801561224e573d6000803e3d6000fd5b505050507f7826fc175d9fd683093260471333116a735f2b149ee23f123fe61b31a4bd947b8a87604051612283929190614e3f565b60405180910390a1509098909750929550919350505050565b6122a682826119b8565b1561074d5760008281526006602090815260408083206001600160a01b0385168085529252808320805460ff1916905551339285917ff6391f5c32d9c69d2a47ea670b442974b53935d1edc7fd64eb21e047a839171b9190a45050565b61230d82826119b8565b61074d5760008281526006602090815260408083206001600160a01b03851684529091529020805460ff191660011790556123453390565b6001600160a01b0316816001600160a01b0316837f2f8788117e7eff1d82e926ec794901d17c78024a50270940304540a733656f0d60405160405180910390a45050565b80516007908155602080830151600855604083015180518493926123b292600992910190613e0a565b5060608201516003820180546001600160a01b03199081166001600160a01b03938416179091556080840151600484018054831691841691909117905560a09093015160059092018054909316911617905550565b600d548110156124425760405162461bcd60e51b8152600401610a60906020808252600490820152634f53533160e01b604082015260600190565b600e55565b606060008260600151600181111561246157612461614bb2565b1461252c57604082015161010083015160e084015161012085015161014086015160008760a00151600181111561249a5761249a614bb2565b1487608001516000815181106124b2576124b26148c3565b6020908102919091010151604051602481019790975260448701959095526064860193909352608485019190915260a4840152151560c483015260e482015260006101048201526101240160408051601f198184030181529190526020810180516001600160e01b0316631807724d60e21b1790526125c4565b604082015161010083015160e084015161012085015161014086015160008760a00151600181111561256057612560614bb2565b604051602481019790975260448701959095526064860193909352608485019190915260a48401521460c4820152600060e48201526101040160408051601f198184030181529190526020810180516001600160e01b031663bdf854f360e01b1790525b90507f0000000000000000000000000000000000000000000000000000000000000000816040516024016125f9929190614d7b565b60408051601f198184030181529190526020810180516001600160e01b03166317e2bf9b60e31b179052805190915061072690829060009061263d90603c90614e61565b613a10565b606060008260600151600181111561265c5761265c614bb2565b1461272757604082015161010083015160e084015161012085015161014086015160008760a00151600181111561269557612695614bb2565b1487608001516000815181106126ad576126ad6148c3565b6020908102919091010151604051602481019790975260448701959095526064860193909352608485019190915260a4840152151560c483015260e482015260006101048201526101240160408051601f198184030181529190526020810180516001600160e01b0316631106e52960e11b1790526125c4565b604082015161010083015160e084015161012085015161014086015160008760a00151600181111561275b5761275b614bb2565b604051602481019790975260448701959095526064860193909352608485019190915260a48401521460c4820152600060e48201526101040160408051601f198184030181529190526020810180516001600160e01b031663d81c542b60e01b17905290507f0000000000000000000000000000000000000000000000000000000000000000816040516024016125f9929190614d7b565b604080516002808252606080830184529260009291906020830190803683370190505090507f00000000000000000000000000000000000000000000000000000000000000008160008151811061284c5761284c6148c3565b60200260200101906001600160a01b031690816001600160a01b0316815250507f0000000000000000000000000000000000000000000000000000000000000000816001815181106128a0576128a06148c3565b6001600160a01b03929092166020928302919091019091015260408051600280825260608201909252600091816020015b60608152602001906001900390816128d1579050506040516001600160a01b03871660248201526044810186905290915060640160408051601f198184030181529190526020810180516001600160e01b031663cf6fc6e360e01b17905281518290600090612942576129426148c3565b602002602001018190525085610140015160405160240161296591815260200190565b60408051601f198184030181529190526020810180516001600160e01b03166363592c2b60e01b1790528151829060019081106129a4576129a46148c3565b602002602001018190525081816040516024016129c2929190614e78565b60408051601f198184030181529190526020810180516001600160e01b0316634b0ead8f60e11b1790529695505050505050565b60606000828460c0015115612a0c576000612a12565b84604001515b610120860151604080516001600160a01b039094166020850152830191909152606082015260800160405160208183030381529060405290507f000000000000000000000000000000000000000000000000000000000000000081604051602001612a7e929190614f19565b60405160208183030381529060405291505092915050565b60026000541415612ae95760405162461bcd60e51b815260206004820152601f60248201527f5265656e7472616e637947756172643a207265656e7472616e742063616c6c006044820152606401610a60565b60026000556001600160a01b038116612b2a5760405162461bcd60e51b8152602060048201526003602482015262524d3160e81b6044820152606401610a60565b600280546001600160a01b038381166001600160a01b0319831681179093556040519116919082907f8a94a9087718f0e83aa163e33a15d3edef3019f120f78e93fba55ecf79750c5d90600090a350506001600055565b6004805460405163b614f13160e01b815260009283926001600160a01b03169163b614f13191612bb3918791016145e8565b604080518083038186803b158015612bca57600080fd5b505afa158015612bde573d6000803e3d6000fd5b505050506040513d601f19601f82011682018060405250810190612c029190614e10565b915091506000826001600160a01b03166370a08231600260009054906101000a90046001600160a01b03166001600160a01b0316635aef7de66040518163ffffffff1660e01b815260040160206040518083038186803b158015612c6557600080fd5b505afa158015612c79573d6000803e3d6000fd5b505050506040513d601f19601f82011682018060405250810190612c9d9190614d9f565b6040516001600160e01b031960e084901b1681526001600160a01b03909116600482015260240160206040518083038186803b158015612cdc57600080fd5b505afa158015612cf0573d6000803e3d6000fd5b505050506040513d601f19601f82011682018060405250810190612d149190614886565b90506000826001600160a01b03166370a08231600260009054906101000a90046001600160a01b03166001600160a01b0316635aef7de66040518163ffffffff1660e01b815260040160206040518083038186803b158015612d7557600080fd5b505afa158015612d89573d6000803e3d6000fd5b505050506040513d601f19601f82011682018060405250810190612dad9190614d9f565b6040516001600160e01b031960e084901b1681526001600160a01b03909116600482015260240160206040518083038186803b158015612dec57600080fd5b505afa158015612e00573d6000803e3d6000fd5b505050506040513d601f19601f82011682018060405250810190612e249190614886565b90508115801590612e3457508015155b1561303d576000818311612e485782612e4a565b815b604080518082018252601a81527f72656465656d28616464726573735b325d2c75696e7432353629000000000000602091820152815180830183526001600160a01b03808a16825288169181019190915290519192506000917fdf849d9c598c3d05f3793fa3a4a039c105615f0fea1aa004ed8d83bdf3eb578191612ed3918590602401614f51565b60408051601f198184030181529181526020820180516001600160e01b03166001600160e01b031990941693909317909252600254600354835163050bba6d60e51b815293519294506001600160a01b0391821693630c766ef493919092169163a1774da091600480830192610120929190829003018186803b158015612f5957600080fd5b505afa158015612f6d573d6000803e3d6000fd5b505050506040513d601f19601f82011682018060405250810190612f919190614cc5565b516040516001600160e01b031960e084901b168152612fb591908590600401614d7b565b600060405180830381600087803b158015612fcf57600080fd5b505af1158015612fe3573d6000803e3d6000fd5b505050508184612ff39190614e61565b9350612fff8284614e61565b92507f0fed1cec8059ec5d4bd2104f8422db85b15123d72c19c725227c8c5a80c8aa8a8783604051613032929190614e3f565b60405180910390a150505b81156131cb5760408051808201825260188152776578656375746528616464726573732c75696e743235362960401b60209182015281516001600160a01b0387811660248301526044808301879052845180840390910181526064909201845291810180516001600160e01b0316631dc4ddc360e11b179052600254600354845163050bba6d60e51b81529451929491841693630c766ef49391169163a1774da091600480830192610120929190829003018186803b1580156130ff57600080fd5b505afa158015613113573d6000803e3d6000fd5b505050506040513d601f19601f820116820180604052508101906131379190614cc5565b516040516001600160e01b031960e084901b16815261315b91908590600401614d7b565b600060405180830381600087803b15801561317557600080fd5b505af1158015613189573d6000803e3d6000fd5b505050507f0a5ae80b474ed99a340af5f286b5b44f2e4c4d94c6706c76cf88d52be4a23711868460016040516131c193929190614f6c565b60405180910390a1505b80156133595760408051808201825260188152776578656375746528616464726573732c75696e743235362960401b60209182015281516001600160a01b0386811660248301526044808301869052845180840390910181526064909201845291810180516001600160e01b0316631dc4ddc360e11b179052600254600354845163050bba6d60e51b81529451929491841693630c766ef49391169163a1774da091600480830192610120929190829003018186803b15801561328d57600080fd5b505afa1580156132a1573d6000803e3d6000fd5b505050506040513d601f19601f820116820180604052508101906132c59190614cc5565b516040516001600160e01b031960e084901b1681526132e991908590600401614d7b565b600060405180830381600087803b15801561330357600080fd5b505af1158015613317573d6000803e3d6000fd5b505050507f0a5ae80b474ed99a340af5f286b5b44f2e4c4d94c6706c76cf88d52be4a237118683600060405161334f93929190614f6c565b60405180910390a1505b600254604080516328ec6dbb60e21b815290516000926001600160a01b03169163a3b1b6ec916004808301926080929190829003018186803b15801561339e57600080fd5b505afa1580156133b2573d6000803e3d6000fd5b505050506040513d601f19601f820116820180604052508101906133d69190614802565b5160405163714f2de760e01b81526001600160a01b038781166004830152600060248301529192509082169063714f2de790604401600060405180830381600087803b15801561342557600080fd5b505af1158015613439573d6000803e3d6000fd5b505060405163714f2de760e01b81526001600160a01b038781166004830152600060248301528416925063714f2de79150604401600060405180830381600087803b15801561348757600080fd5b505af115801561349b573d6000803e3d6000fd5b50505050505050505050565b600061353a82600260009054906101000a90046001600160a01b03166001600160a01b0316635aef7de66040518163ffffffff1660e01b815260040160206040518083038186803b1580156134fb57600080fd5b505afa15801561350f573d6000803e3d6000fd5b505050506040513d601f19601f820116820180604052508101906135339190614d9f565b6000610f9d565b9050600061354782611ae2565b6040805180820182526018815277617070726f766528616464726573732c75696e743235362960401b6020918201528582015182516001600160a01b037f000000000000000000000000000000000000000000000000000000000000000081166024830152604480830193909352845180830390930183526064909101845291810180516001600160e01b031663095ea7b360e01b1790526002548751935163031d9bbd60e21b81529495509093911691630c766ef49161360d91908590600401614d7b565b600060405180830381600087803b15801561362757600080fd5b505af115801561363b573d6000803e3d6000fd5b505060408051808201825260128152717369676e4d6573736167652862797465732960701b6020918201528151908101869052600093507f85a5affea6fef91f51d60c6cba59ec284eed7338cbcd43ac148aac94de4fc43a92500160408051601f19818403018152908290526136b391602401614f96565b60408051601f198184030181529181526020820180516001600160e01b03166001600160e01b0319909416939093179092526002546005549251636ba7bbcd60e11b81529193506001600160a01b039081169263d74f779a9261371f9291909116908590600401614d7b565b600060405180830381600087803b15801561373957600080fd5b505af115801561374d573d6000803e3d6000fd5b505050507fe6a2f4396a2eff11e5bb729a4ca4216192d8cd205f6fb66ea04b9c39214976c7856040516137809190614fcb565b60405180910390a15050505050565b600180546001600160a01b038381166001600160a01b0319831681179093556040519116919082907f8be0079c531659141344cd1fd0a4f28419497f9722a3daafe3b4186f6b6457e090600090a35050565b600061383582600260009054906101000a90046001600160a01b03166001600160a01b0316635aef7de66040518163ffffffff1660e01b815260040160206040518083038186803b1580156134fb57600080fd5b905060006040518060a001604052806078815260200161518760789139805190602001208260405160240161386a91906143d5565b60408051601f198184030181529181526020820180516001600160e01b03166001600160e01b031990941693909317909252600254915163031d9bbd60e21b81529092506001600160a01b0390911690630c766ef4906138f0907f0000000000000000000000000000000000000000000000000000000000000000908590600401614d7b565b600060405180830381600087803b15801561390a57600080fd5b505af115801561391e573d6000803e3d6000fd5b505050507f2f99051314db5b3070b8a9c485b70edc78f8861da6b7bd1c3708f76df89e5c46836040516139519190614fcb565b60405180910390a1505050565b600061072661396b613b1d565b8360405161190160f01b6020820152602281018390526042810182905260009060620160405160208183030381529060405280519060200120905092915050565b6139b682826119b8565b61074d576139ce816001600160a01b03166014613bfd565b6139d9836020613bfd565b6040516020016139ea9291906150a5565b60408051601f198184030181529082905262461bcd60e51b8252610a6091600401614f96565b606081613a1e81601f6148ef565b1015613a5d5760405162461bcd60e51b815260206004820152600e60248201526d736c6963655f6f766572666c6f7760901b6044820152606401610a60565b613a6782846148ef565b84511015613aab5760405162461bcd60e51b8152602060048201526011602482015270736c6963655f6f75744f66426f756e647360781b6044820152606401610a60565b606082158015613aca5760405191506000825260208201604052613b14565b6040519150601f8416801560200281840101858101878315602002848b0101015b81831015613b03578051835260209283019201613aeb565b5050858452601f01601f1916604052505b50949350505050565b60007f0000000000000000000000000000000000000000000000000000000000000000461415613b6c57507f000000000000000000000000000000000000000000000000000000000000000090565b613bf87f00000000000000000000000000000000000000000000000000000000000000007f00000000000000000000000000000000000000000000000000000000000000007f00000000000000000000000000000000000000000000000000000000000000007f0000000000000000000000000000000000000000000000000000000000000000613d98565b905090565b60606000613c0c836002614907565b613c179060026148ef565b6001600160401b03811115613c2e57613c2e613ead565b6040519080825280601f01601f191660200182016040528015613c58576020820181803683370190505b509050600360fc1b81600081518110613c7357613c736148c3565b60200101906001600160f81b031916908160001a905350600f60fb1b81600181518110613ca257613ca26148c3565b60200101906001600160f81b031916908160001a9053506000613cc6846002614907565b613cd19060016148ef565b90505b6001811115613d49576f181899199a1a9b1b9c1cb0b131b232b360811b85600f1660108110613d0557613d056148c3565b1a60f81b828281518110613d1b57613d1b6148c3565b60200101906001600160f81b031916908160001a90535060049490941c93613d428161511a565b9050613cd4565b508315611bd85760405162461bcd60e51b815260206004820181905260248201527f537472696e67733a20686578206c656e67746820696e73756666696369656e746044820152606401610a60565b6040805160208101869052908101849052606081018390524660808201526001600160a01b03821660a082015260009060c0016040516020818303038152906040528051906020012090505b949350505050565b60405180604001604052806002906020820280368337509192915050565b828054828255906000526020600020908101928215613e45579160200282015b82811115613e45578251825591602001919060010190613e2a565b50613e51929150613e55565b5090565b5b80821115613e515760008155600101613e56565b600060208284031215613e7c57600080fd5b81356001600160e01b031981168114611bd857600080fd5b600060208284031215613ea657600080fd5b5035919050565b634e487b7160e01b600052604160045260246000fd5b60405160c081016001600160401b0381118282101715613ee557613ee5613ead565b60405290565b60405161018081016001600160401b0381118282101715613ee557613ee5613ead565b6040516101e081016001600160401b0381118282101715613ee557613ee5613ead565b60405161012081016001600160401b0381118282101715613ee557613ee5613ead565b604051601f8201601f191681016001600160401b0381118282101715613f7c57613f7c613ead565b604052919050565b600082601f830112613f9557600080fd5b813560206001600160401b03821115613fb057613fb0613ead565b8160051b613fbf828201613f54565b9283528481018201928281019087851115613fd957600080fd5b83870192505b84831015613ff857823582529183019190830190613fdf565b979650505050505050565b6001600160a01b0381168114610dae57600080fd5b803561402381614003565b919050565b60006020828403121561403a57600080fd5b81356001600160401b038082111561405157600080fd5b9083019060c0828603121561406557600080fd5b61406d613ec3565b823581526020830135602082015260408301358281111561408d57600080fd5b61409987828601613f84565b604083015250606083013591506140af82614003565b816060820152608083013591506140c582614003565b81608082015260a083013592506140db83614003565b60a0810192909252509392505050565b60006001600160401b0382111561410457614104613ead565b50601f01601f191660200190565b600082601f83011261412357600080fd5b8135614136614131826140eb565b613f54565b81815284602083860101111561414b57600080fd5b816020850160208301376000918101602001919091529392505050565b6000806040838503121561417b57600080fd5b8235915060208301356001600160401b0381111561419857600080fd5b6141a485828601614112565b9150509250929050565b6000602082840312156141c057600080fd5b8135611bd881614003565b600080604083850312156141de57600080fd5b50508035926020909101359150565b6000806040838503121561420057600080fd5b82359150602083013561421281614003565b809150509250929050565b80356002811061402357600080fd5b8015158114610dae57600080fd5b80356140238161422c565b6000610180828403121561425857600080fd5b614260613eeb565b905061426b82614018565b815261427960208301614018565b6020820152604082013560408201526142946060830161421d565b606082015260808201356001600160401b038111156142b257600080fd5b6142be84828501613f84565b6080830152506142d060a0830161421d565b60a08201526142e160c0830161423a565b60c082015260e082810135908201526101008083013590820152610120808301359082015261014080830135908201526101609182013591810191909152919050565b60008060006060848603121561433957600080fd5b83356001600160401b0381111561434f57600080fd5b61435b86828701614245565b935050602084013561436c81614003565b929592945050506040919091013590565b60005b83811015614398578181015183820152602001614380565b838111156119b25750506000910152565b600081518084526143c181602086016020860161437d565b601f01601f19169290920160200192915050565b6020815281516020820152600060208301516143fc60408401826001600160a01b03169052565b5060408301516001600160a01b03811660608401525060608301516001600160a01b03811660808401525060808301516001600160a01b03811660a08401525060a08301516001600160a01b03811660c08401525060c083015160e083015260e08301516101008181850152808501519150506101e061012081818601526144886102008601846143a9565b9250808601519050601f196101408187860301818801526144a985846143a9565b9450808801519250506101608187860301818801526144c885846143a9565b9450808801519250506101808187860301818801526144e785846143a9565b9450808801519250506101a081878603018188015261450685846143a9565b9450808801519250506101c081878603018188015261452585846143a9565b90880151878203909201848801529350905061454183826143a9565b9695505050505050565b600081518084526020808501945080840160005b8381101561457b5781518752958201959082019060010161455f565b509495945050505050565b80518252602081015160208301526000604082015160c060408501526145af60c085018261454b565b6060848101516001600160a01b039081169187019190915260808086015182169087015260a09485015116949093019390935250919050565b602081526000611bd86020830184614586565b60006020828403121561460d57600080fd5b81356001600160401b0381111561462357600080fd5b613de484828501614245565b60006020828403121561464157600080fd5b81356001600160401b038082111561465857600080fd5b908301906101e0828603121561466d57600080fd5b614675613f0e565b8235815261468560208401614018565b602082015261469660408401614018565b60408201526146a760608401614018565b60608201526146b860808401614018565b60808201526146c960a08401614018565b60a082015260c083013560c082015260e083013560e082015261010080840135838111156146f657600080fd5b61470288828701614112565b828401525050610120808401358381111561471c57600080fd5b61472888828701614112565b828401525050610140808401358381111561474257600080fd5b61474e88828701614112565b828401525050610160808401358381111561476857600080fd5b61477488828701614112565b828401525050610180808401358381111561478e57600080fd5b61479a88828701614112565b8284015250506101a080840135838111156147b457600080fd5b6147c088828701614112565b8284015250506101c080840135838111156147da57600080fd5b6147e688828701614112565b918301919091525095945050505050565b805161402381614003565b60006080828403121561481457600080fd5b604051608081018181106001600160401b038211171561483657614836613ead565b604052825161484481614003565b8152602083015161485481614003565b6020820152604083015161486781614003565b6040820152606083015161487a81614003565b60608201529392505050565b60006020828403121561489857600080fd5b5051919050565b600080604083850312156148b257600080fd5b505080516020909101519092909150565b634e487b7160e01b600052603260045260246000fd5b634e487b7160e01b600052601160045260246000fd5b60008219821115614902576149026148d9565b500190565b6000816000190483118215151615614921576149216148d9565b500290565b634e487b7160e01b600052601260045260246000fd5b60008261494b5761494b614926565b500490565b60006020828403121561496257600080fd5b8151611bd88161422c565b600082601f83011261497e57600080fd5b815161498c614131826140eb565b8181528460208386010111156149a157600080fd5b613de482602083016020870161437d565b6000602082840312156149c457600080fd5b81516001600160401b03808211156149db57600080fd5b908301906101e082860312156149f057600080fd5b6149f8613f0e565b82518152614a08602084016147f7565b6020820152614a19604084016147f7565b6040820152614a2a606084016147f7565b6060820152614a3b608084016147f7565b6080820152614a4c60a084016147f7565b60a082015260c083015160c082015260e083015160e08201526101008084015183811115614a7957600080fd5b614a858882870161496d565b8284015250506101208084015183811115614a9f57600080fd5b614aab8882870161496d565b8284015250506101408084015183811115614ac557600080fd5b614ad18882870161496d565b8284015250506101608084015183811115614aeb57600080fd5b614af78882870161496d565b8284015250506101808084015183811115614b1157600080fd5b614b1d8882870161496d565b8284015250506101a08084015183811115614b3757600080fd5b614b438882870161496d565b8284015250506101c08084015183811115614b5d57600080fd5b6147e68882870161496d565b6020808252818101527f4f776e61626c653a2063616c6c6572206973206e6f7420746865206f776e6572604082015260600190565b600082614bad57614bad614926565b500690565b634e487b7160e01b600052602160045260246000fd5b600060208284031215614bda57600080fd5b815161ffff81168114611bd857600080fd5b6000610200820190508a82528951602083015260208a015160018060a01b0380821660408501528060408d01511660608501528060608d0151166080850152505060808a0151614c4760a08401826001600160a01b03169052565b5060a08a01516001600160a01b03811660c08401525060c08a015160e083015260e08a015161010083015288610120830152876101408301528661016083015285610180830152846101a0830152836101c0830152826101e08301529a9950505050505050505050565b805163ffffffff8116811461402357600080fd5b60006101208284031215614cd857600080fd5b614ce0613f31565b614ce9836147f7565b8152614cf7602084016147f7565b6020820152614d08604084016147f7565b6040820152614d19606084016147f7565b6060820152614d2a608084016147f7565b6080820152614d3b60a084016147f7565b60a0820152614d4c60c084016147f7565b60c0820152614d5d60e08401614cb1565b60e0820152610100614d70818501614cb1565b908201529392505050565b6001600160a01b0383168152604060208201819052600090613de4908301846143a9565b600060208284031215614db157600080fd5b8151611bd881614003565b8060005b60028110156119b25781516001600160a01b0316845260209384019390910190600101614dc0565b608081526000614dfb6080830186614586565b9050836020830152613de46040830184614dbc565b60008060408385031215614e2357600080fd5b8251614e2e81614003565b602084015190925061421281614003565b604081526000614e526040830185614586565b90508260208301529392505050565b600082821015614e7357614e736148d9565b500390565b604080825283519082018190526000906020906060840190828701845b82811015614eba5781516001600160a01b031684529284019290840190600101614e95565b50505083810382850152845180825282820190600581901b8301840187850160005b83811015614f0a57601f19868403018552614ef88383516143a9565b94870194925090860190600101614edc565b50909998505050505050505050565b6bffffffffffffffffffffffff198360601b16815260008251614f4381601485016020870161437d565b919091016014019392505050565b60608101614f5f8285614dbc565b8260408301529392505050565b606081526000614f7f6060830186614586565b602083019490945250901515604090910152919050565b602081526000611bd860208301846143a9565b60028110614fc757634e487b7160e01b600052602160045260246000fd5b9052565b60208152614fe56020820183516001600160a01b03169052565b6000602083015161500160408401826001600160a01b03169052565b5060408301516060830152606083015161501e6080840182614fa9565b5060808301516101808060a085015261503b6101a085018361454b565b915060a085015161504f60c0860182614fa9565b5060c085015180151560e08601525060e085015161010085810191909152850151610120808601919091528501516101408086019190915285015161016080860191909152909401519390920192909252919050565b7f416363657373436f6e74726f6c3a206163636f756e74200000000000000000008152600083516150dd81601785016020880161437d565b7001034b99036b4b9b9b4b733903937b6329607d1b601791840191820152835161510e81602884016020880161437d565b01602801949350505050565b600081615129576151296148d9565b50600019019056fe637265617465416e644d696e74282875696e743235362c75696e743235362c75696e743235365b5d2c616464726573732c616464726573732c61646472657373292c75696e743235362c616464726573735b325d2963616e63656c4f72646572282875696e743235362c616464726573732c616464726573732c616464726573732c616464726573732c616464726573732c75696e743235362c75696e743235362c62797465732c62797465732c62797465732c62797465732c62797465732c62797465732c627974657329299c1ca198f61ac1647c38f20b6678649f8e87b7e06309094d812edd1e9119d309a26469706673582212208f47828573fefdf51461fac152154261e24f4eb474ec8e7dac3157ad41f5671a64736f6c63430008090033",
  "devdoc": {
    "kind": "dev",
    "methods": {
      "getAvailableQuantity((uint256,uint256,uint256[],address,address,address))": {
        "params": {
          "derivative_": "provided derivative to mint"
        }
      },
      "getRoleAdmin(bytes32)": {
        "details": "Returns the admin role that controls `role`. See {grantRole} and {revokeRole}. To change a role's admin, use {_setRoleAdmin}."
      },
      "grantRole(bytes32,address)": {
        "details": "Grants `role` to `account`. If `account` had not been already granted `role`, emits a {RoleGranted} event. Requirements: - the caller must have ``role``'s admin role."
      },
      "hasRole(bytes32,address)": {
        "details": "Returns `true` if `account` has been granted `role`."
      },
      "isValidSignature(bytes32,bytes)": {
        "details": "Should return whether the signature provided is valid for the provided data",
        "params": {
          "hash": "Hash of the data to be signed",
          "signature": "Signature byte array associated with _data"
        }
      },
      "owner()": {
        "details": "Returns the address of the current owner."
      },
      "renounceOwnership()": {
        "details": "Leaves the contract without owner. It will not be possible to call `onlyOwner` functions anymore. Can only be called by the current owner. NOTE: Renouncing ownership will leave the contract without an owner, thereby removing any functionality that is only available to the owner."
      },
      "renounceRole(bytes32,address)": {
        "details": "Revokes `role` from the calling account. Roles are often managed via {grantRole} and {revokeRole}: this function's purpose is to provide a mechanism for accounts to lose their privileges if they are compromised (such as when a trusted device is misplaced). If the calling account had been revoked `role`, emits a {RoleRevoked} event. Requirements: - the caller must be `account`."
      },
      "revokeRole(bytes32,address)": {
        "details": "Revokes `role` from `account`. If `account` had been granted `role`, emits a {RoleRevoked} event. Requirements: - the caller must have ``role``'s admin role."
      },
      "setRegistryModule(address)": {
        "params": {
          "registryModule_": "new address / instance of the Registry Module"
        }
      },
      "supportsInterface(bytes4)": {
        "details": "See {IERC165-supportsInterface}."
      },
      "transferOwnership(address)": {
        "details": "Transfers ownership of the contract to a new account (`newOwner`). Can only be called by the current owner."
      }
    },
    "version": 1
  },
  "userdoc": {
    "kind": "user",
    "methods": {
      "ADVISOR_ROLE()": {
        "notice": "Constant containing the hash of the ADVISOR_ROLE"
      },
      "BASE()": {
        "notice": "Reference value (basis) representing 100%"
      },
      "getAvailableQuantity((uint256,uint256,uint256[],address,address,address))": {
        "notice": "Calculates the available quantity of the provided derivative to that's possible to mint with the current Vault's liquidity as well as the margin required to be locked within the minting process"
      },
      "getNextStrikePrice()": {
        "notice": "Public Getters "
      },
      "getOpiumLens()": {
        "notice": "Returns the instance of Opium Protocol V2 Lens"
      },
      "getOpiumRegistry()": {
        "notice": "Returns the instance of Opium Protocol V2 Registry"
      },
      "getRegistryModule()": {
        "notice": "Returns Registry Module instance"
      },
      "rebalance()": {
        "notice": "Trigger Accounting Module to start rebalancing process only when Rebalancing is possible"
      },
      "setDerivative((uint256,uint256,uint256[],address,address,address))": {
        "notice": "Public Setters "
      },
      "setRegistryModule(address)": {
        "notice": "Changes Registry Module instance"
      }
    },
    "version": 1
  },
  "storageLayout": {
    "storage": [
      {
        "astId": 4716,
        "contract": "contracts/modules/Strategies/libraries/OptionCallSellingStrategy.sol:OptionCallSellingStrategy",
        "label": "_status",
        "offset": 0,
        "slot": "0",
        "type": "t_uint256"
      },
      {
        "astId": 4594,
        "contract": "contracts/modules/Strategies/libraries/OptionCallSellingStrategy.sol:OptionCallSellingStrategy",
        "label": "_owner",
        "offset": 0,
        "slot": "1",
        "type": "t_address"
      },
      {
        "astId": 6337,
        "contract": "contracts/modules/Strategies/libraries/OptionCallSellingStrategy.sol:OptionCallSellingStrategy",
        "label": "_registryModule",
        "offset": 0,
        "slot": "2",
        "type": "t_contract(IRegistryAndZodiacModule)6848"
      },
      {
        "astId": 11406,
        "contract": "contracts/modules/Strategies/libraries/OptionCallSellingStrategy.sol:OptionCallSellingStrategy",
        "label": "_opiumRegistry",
        "offset": 0,
        "slot": "3",
        "type": "t_contract(IOpiumRegistry)12603"
      },
      {
        "astId": 11410,
        "contract": "contracts/modules/Strategies/libraries/OptionCallSellingStrategy.sol:OptionCallSellingStrategy",
        "label": "_opiumLens",
        "offset": 0,
        "slot": "4",
        "type": "t_contract(IOpiumOnChainPositionsLens)12574"
      },
      {
        "astId": 11186,
        "contract": "contracts/modules/Strategies/libraries/OptionCallSellingStrategy.sol:OptionCallSellingStrategy",
        "label": "signMessageLib",
        "offset": 0,
        "slot": "5",
        "type": "t_address"
      },
      {
        "astId": 4218,
        "contract": "contracts/modules/Strategies/libraries/OptionCallSellingStrategy.sol:OptionCallSellingStrategy",
        "label": "_roles",
        "offset": 0,
        "slot": "6",
        "type": "t_mapping(t_bytes32,t_struct(RoleData)4213_storage)"
      },
      {
        "astId": 12075,
        "contract": "contracts/modules/Strategies/libraries/OptionCallSellingStrategy.sol:OptionCallSellingStrategy",
        "label": "derivative",
        "offset": 0,
        "slot": "7",
        "type": "t_struct(Derivative)12517_storage"
      },
      {
        "astId": 12078,
        "contract": "contracts/modules/Strategies/libraries/OptionCallSellingStrategy.sol:OptionCallSellingStrategy",
        "label": "strikePriceDeltaLimit",
        "offset": 0,
        "slot": "13",
        "type": "t_uint256"
      },
      {
        "astId": 12081,
        "contract": "contracts/modules/Strategies/libraries/OptionCallSellingStrategy.sol:OptionCallSellingStrategy",
        "label": "strikePriceDelta",
        "offset": 0,
        "slot": "14",
        "type": "t_uint256"
      },
      {
        "astId": 12084,
        "contract": "contracts/modules/Strategies/libraries/OptionCallSellingStrategy.sol:OptionCallSellingStrategy",
        "label": "strikePriceRounding",
        "offset": 0,
        "slot": "15",
        "type": "t_uint256"
      },
      {
        "astId": 12087,
        "contract": "contracts/modules/Strategies/libraries/OptionCallSellingStrategy.sol:OptionCallSellingStrategy",
        "label": "auctionDuration",
        "offset": 0,
        "slot": "16",
        "type": "t_uint256"
      },
      {
        "astId": 12090,
        "contract": "contracts/modules/Strategies/libraries/OptionCallSellingStrategy.sol:OptionCallSellingStrategy",
        "label": "auctionMinPrice",
        "offset": 0,
        "slot": "17",
        "type": "t_uint256"
      },
      {
        "astId": 12093,
        "contract": "contracts/modules/Strategies/libraries/OptionCallSellingStrategy.sol:OptionCallSellingStrategy",
        "label": "auctionMaxPrice",
        "offset": 0,
        "slot": "18",
        "type": "t_uint256"
      },
      {
        "astId": 12096,
        "contract": "contracts/modules/Strategies/libraries/OptionCallSellingStrategy.sol:OptionCallSellingStrategy",
        "label": "auctionAmplifier",
        "offset": 0,
        "slot": "19",
        "type": "t_uint256"
      },
      {
        "astId": 12098,
        "contract": "contracts/modules/Strategies/libraries/OptionCallSellingStrategy.sol:OptionCallSellingStrategy",
        "label": "strikePrice",
        "offset": 0,
        "slot": "20",
        "type": "t_uint256"
      },
      {
        "astId": 12100,
        "contract": "contracts/modules/Strategies/libraries/OptionCallSellingStrategy.sol:OptionCallSellingStrategy",
        "label": "longPositionAddress",
        "offset": 0,
        "slot": "21",
        "type": "t_address"
      },
      {
        "astId": 12102,
        "contract": "contracts/modules/Strategies/libraries/OptionCallSellingStrategy.sol:OptionCallSellingStrategy",
        "label": "availableQuantity",
        "offset": 0,
        "slot": "22",
        "type": "t_uint256"
      }
    ],
    "types": {
      "t_address": {
        "encoding": "inplace",
        "label": "address",
        "numberOfBytes": "20"
      },
      "t_array(t_uint256)dyn_storage": {
        "base": "t_uint256",
        "encoding": "dynamic_array",
        "label": "uint256[]",
        "numberOfBytes": "32"
      },
      "t_bool": {
        "encoding": "inplace",
        "label": "bool",
        "numberOfBytes": "1"
      },
      "t_bytes32": {
        "encoding": "inplace",
        "label": "bytes32",
        "numberOfBytes": "32"
      },
      "t_contract(IOpiumOnChainPositionsLens)12574": {
        "encoding": "inplace",
        "label": "contract IOpiumOnChainPositionsLens",
        "numberOfBytes": "20"
      },
      "t_contract(IOpiumRegistry)12603": {
        "encoding": "inplace",
        "label": "contract IOpiumRegistry",
        "numberOfBytes": "20"
      },
      "t_contract(IRegistryAndZodiacModule)6848": {
        "encoding": "inplace",
        "label": "contract IRegistryAndZodiacModule",
        "numberOfBytes": "20"
      },
      "t_mapping(t_address,t_bool)": {
        "encoding": "mapping",
        "key": "t_address",
        "label": "mapping(address => bool)",
        "numberOfBytes": "32",
        "value": "t_bool"
      },
      "t_mapping(t_bytes32,t_struct(RoleData)4213_storage)": {
        "encoding": "mapping",
        "key": "t_bytes32",
        "label": "mapping(bytes32 => struct AccessControl.RoleData)",
        "numberOfBytes": "32",
        "value": "t_struct(RoleData)4213_storage"
      },
      "t_struct(Derivative)12517_storage": {
        "encoding": "inplace",
        "label": "struct IOpiumCore.Derivative",
        "members": [
          {
            "astId": 12505,
            "contract": "contracts/modules/Strategies/libraries/OptionCallSellingStrategy.sol:OptionCallSellingStrategy",
            "label": "margin",
            "offset": 0,
            "slot": "0",
            "type": "t_uint256"
          },
          {
            "astId": 12507,
            "contract": "contracts/modules/Strategies/libraries/OptionCallSellingStrategy.sol:OptionCallSellingStrategy",
            "label": "endTime",
            "offset": 0,
            "slot": "1",
            "type": "t_uint256"
          },
          {
            "astId": 12510,
            "contract": "contracts/modules/Strategies/libraries/OptionCallSellingStrategy.sol:OptionCallSellingStrategy",
            "label": "params",
            "offset": 0,
            "slot": "2",
            "type": "t_array(t_uint256)dyn_storage"
          },
          {
            "astId": 12512,
            "contract": "contracts/modules/Strategies/libraries/OptionCallSellingStrategy.sol:OptionCallSellingStrategy",
            "label": "oracleId",
            "offset": 0,
            "slot": "3",
            "type": "t_address"
          },
          {
            "astId": 12514,
            "contract": "contracts/modules/Strategies/libraries/OptionCallSellingStrategy.sol:OptionCallSellingStrategy",
            "label": "token",
            "offset": 0,
            "slot": "4",
            "type": "t_address"
          },
          {
            "astId": 12516,
            "contract": "contracts/modules/Strategies/libraries/OptionCallSellingStrategy.sol:OptionCallSellingStrategy",
            "label": "syntheticId",
            "offset": 0,
            "slot": "5",
            "type": "t_address"
          }
        ],
        "numberOfBytes": "192"
      },
      "t_struct(RoleData)4213_storage": {
        "encoding": "inplace",
        "label": "struct AccessControl.RoleData",
        "members": [
          {
            "astId": 4210,
            "contract": "contracts/modules/Strategies/libraries/OptionCallSellingStrategy.sol:OptionCallSellingStrategy",
            "label": "members",
            "offset": 0,
            "slot": "0",
            "type": "t_mapping(t_address,t_bool)"
          },
          {
            "astId": 4212,
            "contract": "contracts/modules/Strategies/libraries/OptionCallSellingStrategy.sol:OptionCallSellingStrategy",
            "label": "adminRole",
            "offset": 0,
            "slot": "1",
            "type": "t_bytes32"
          }
        ],
        "numberOfBytes": "64"
      },
      "t_uint256": {
        "encoding": "inplace",
        "label": "uint256",
        "numberOfBytes": "32"
      }
    }
  }
}