{
  "address": "0xB183Df5F877B35aA2290d15eb96D350845358431",
  "abi": [
    {
      "inputs": [
        {
          "internalType": "address",
          "name": "_accountingAddress",
          "type": "address"
        }
      ],
      "name": "getAccountingData",
      "outputs": [
        {
          "components": [
            {
              "internalType": "uint256",
              "name": "poolSize",
              "type": "uint256"
            },
            {
              "internalType": "uint256",
              "name": "poolUtilization",
              "type": "uint256"
            },
            {
              "internalType": "uint256",
              "name": "managementFee",
              "type": "uint256"
            },
            {
              "internalType": "uint256",
              "name": "performanceFee",
              "type": "uint256"
            },
            {
              "internalType": "uint256",
              "name": "marginDecimals",
              "type": "uint256"
            },
            {
              "internalType": "address",
              "name": "marginAddress",
              "type": "address"
            },
            {
              "internalType": "string",
              "name": "marginTitle",
              "type": "string"
            }
          ],
          "internalType": "struct PoolsLens.AccountingDataStruct",
          "name": "",
          "type": "tuple"
        }
      ],
      "stateMutability": "view",
      "type": "function"
    },
    {
      "inputs": [
        {
          "internalType": "address",
          "name": "_lifecycleAddress",
          "type": "address"
        }
      ],
      "name": "getLifecycleData",
      "outputs": [
        {
          "components": [
            {
              "internalType": "uint256",
              "name": "currentEpochTimestamp",
              "type": "uint256"
            },
            {
              "internalType": "uint256",
              "name": "currentEpochStarted",
              "type": "uint256"
            },
            {
              "internalType": "uint256[3]",
              "name": "phasesLength",
              "type": "uint256[3]"
            },
            {
              "internalType": "uint256",
              "name": "epochLength",
              "type": "uint256"
            },
            {
              "internalType": "bool",
              "name": "isStakingPhase",
              "type": "bool"
            },
            {
              "internalType": "bool",
              "name": "isTradingPhase",
              "type": "bool"
            },
            {
              "internalType": "bool",
              "name": "isIdlePhase",
              "type": "bool"
            }
          ],
          "internalType": "struct PoolsLens.LifecycleDataStruct",
          "name": "",
          "type": "tuple"
        }
      ],
      "stateMutability": "view",
      "type": "function"
    },
    {
      "inputs": [
        {
          "internalType": "address",
          "name": "_registryAddress",
          "type": "address"
        },
        {
          "internalType": "address",
          "name": "_userAddress",
          "type": "address"
        }
      ],
      "name": "getPoolData",
      "outputs": [
        {
          "components": [
            {
              "internalType": "address",
              "name": "stakingAddress",
              "type": "address"
            },
            {
              "internalType": "address",
              "name": "accountingAddress",
              "type": "address"
            },
            {
              "internalType": "address",
              "name": "lifecycleAddress",
              "type": "address"
            },
            {
              "internalType": "address",
              "name": "vaultAddress",
              "type": "address"
            },
            {
              "internalType": "address",
              "name": "strategyAddress",
              "type": "address"
            }
          ],
          "internalType": "struct PoolsLens.ModulesDataStruct",
          "name": "modules",
          "type": "tuple"
        },
        {
          "components": [
            {
              "internalType": "uint256",
              "name": "poolSize",
              "type": "uint256"
            },
            {
              "internalType": "uint256",
              "name": "poolUtilization",
              "type": "uint256"
            },
            {
              "internalType": "uint256",
              "name": "managementFee",
              "type": "uint256"
            },
            {
              "internalType": "uint256",
              "name": "performanceFee",
              "type": "uint256"
            },
            {
              "internalType": "uint256",
              "name": "marginDecimals",
              "type": "uint256"
            },
            {
              "internalType": "address",
              "name": "marginAddress",
              "type": "address"
            },
            {
              "internalType": "string",
              "name": "marginTitle",
              "type": "string"
            }
          ],
          "internalType": "struct PoolsLens.AccountingDataStruct",
          "name": "accounting",
          "type": "tuple"
        },
        {
          "components": [
            {
              "internalType": "uint256",
              "name": "pendingStake",
              "type": "uint256"
            },
            {
              "internalType": "uint256",
              "name": "pendingWithdrawal",
              "type": "uint256"
            },
            {
              "internalType": "uint256",
              "name": "userStaked",
              "type": "uint256"
            },
            {
              "internalType": "uint256",
              "name": "claimableAssets",
              "type": "uint256"
            },
            {
              "internalType": "uint256",
              "name": "claimableShares",
              "type": "uint256"
            },
            {
              "internalType": "uint256",
              "name": "totalSupply",
              "type": "uint256"
            }
          ],
          "internalType": "struct PoolsLens.StakingDataStruct",
          "name": "staking",
          "type": "tuple"
        },
        {
          "components": [
            {
              "internalType": "uint256",
              "name": "currentEpochTimestamp",
              "type": "uint256"
            },
            {
              "internalType": "uint256",
              "name": "currentEpochStarted",
              "type": "uint256"
            },
            {
              "internalType": "uint256[3]",
              "name": "phasesLength",
              "type": "uint256[3]"
            },
            {
              "internalType": "uint256",
              "name": "epochLength",
              "type": "uint256"
            },
            {
              "internalType": "bool",
              "name": "isStakingPhase",
              "type": "bool"
            },
            {
              "internalType": "bool",
              "name": "isTradingPhase",
              "type": "bool"
            },
            {
              "internalType": "bool",
              "name": "isIdlePhase",
              "type": "bool"
            }
          ],
          "internalType": "struct PoolsLens.LifecycleDataStruct",
          "name": "lifecycle",
          "type": "tuple"
        }
      ],
      "stateMutability": "view",
      "type": "function"
    },
    {
      "inputs": [
        {
          "internalType": "address",
          "name": "_registryAddress",
          "type": "address"
        }
      ],
      "name": "getPoolModules",
      "outputs": [
        {
          "components": [
            {
              "internalType": "address",
              "name": "stakingAddress",
              "type": "address"
            },
            {
              "internalType": "address",
              "name": "accountingAddress",
              "type": "address"
            },
            {
              "internalType": "address",
              "name": "lifecycleAddress",
              "type": "address"
            },
            {
              "internalType": "address",
              "name": "vaultAddress",
              "type": "address"
            },
            {
              "internalType": "address",
              "name": "strategyAddress",
              "type": "address"
            }
          ],
          "internalType": "struct PoolsLens.ModulesDataStruct",
          "name": "",
          "type": "tuple"
        }
      ],
      "stateMutability": "view",
      "type": "function"
    },
    {
      "inputs": [
        {
          "internalType": "address",
          "name": "_stakingAddress",
          "type": "address"
        },
        {
          "internalType": "address",
          "name": "_lifecycleAddress",
          "type": "address"
        },
        {
          "internalType": "address",
          "name": "_userAddress",
          "type": "address"
        }
      ],
      "name": "getStakingData",
      "outputs": [
        {
          "components": [
            {
              "internalType": "uint256",
              "name": "pendingStake",
              "type": "uint256"
            },
            {
              "internalType": "uint256",
              "name": "pendingWithdrawal",
              "type": "uint256"
            },
            {
              "internalType": "uint256",
              "name": "userStaked",
              "type": "uint256"
            },
            {
              "internalType": "uint256",
              "name": "claimableAssets",
              "type": "uint256"
            },
            {
              "internalType": "uint256",
              "name": "claimableShares",
              "type": "uint256"
            },
            {
              "internalType": "uint256",
              "name": "totalSupply",
              "type": "uint256"
            }
          ],
          "internalType": "struct PoolsLens.StakingDataStruct",
          "name": "",
          "type": "tuple"
        }
      ],
      "stateMutability": "view",
      "type": "function"
    }
  ],
  "transactionHash": "0xc750e9ab13afe0aa65556b63fd3965337986c3eda833794e1559f8e88fea56f9",
  "args": [],
  "numDeployments": 1,
  "solcInputHash": "51dd8d381207e74c9c2dc3b9db627382",
  "bytecode": "0x608060405234801561001057600080fd5b50611830806100206000396000f3fe608060405234801561001057600080fd5b50600436106100575760003560e01c806379b10a011461005c578063c75016f114610085578063e9e32193146100a5578063ec6390f4146100c5578063fe4b628f146100e8575b600080fd5b61006f61006a366004611241565b610108565b60405161007c9190611313565b60405180910390f35b610098610093366004611326565b610474565b60405161007c9190611371565b6100b86100b3366004611241565b6109f9565b60405161007c91906113f9565b6100d86100d3366004611407565b610b7b565b60405161007c94939291906114b1565b6100fb6100f6366004611241565b610c36565b60405161007c919061152f565b610110611182565b60008290506000816001600160a01b0316639816f4736040518163ffffffff1660e01b815260040160206040518083038186803b15801561015057600080fd5b505afa158015610164573d6000803e3d6000fd5b505050506040513d601f19601f82011682018060405250810190610188919061153e565b90506040518060e00160405280836001600160a01b03166335c7e9256040518163ffffffff1660e01b815260040160206040518083038186803b1580156101ce57600080fd5b505afa1580156101e2573d6000803e3d6000fd5b505050506040513d601f19601f82011682018060405250810190610206919061155b565b8152602001836001600160a01b031663c69dcf976040518163ffffffff1660e01b815260040160206040518083038186803b15801561024457600080fd5b505afa158015610258573d6000803e3d6000fd5b505050506040513d601f19601f8201168201806040525081019061027c919061155b565b8152602001836001600160a01b031663549b46646040518163ffffffff1660e01b815260040160206040518083038186803b1580156102ba57600080fd5b505afa1580156102ce573d6000803e3d6000fd5b505050506040513d601f19601f820116820180604052508101906102f2919061155b565b8152602001836001600160a01b0316632c165b6c6040518163ffffffff1660e01b815260040160206040518083038186803b15801561033057600080fd5b505afa158015610344573d6000803e3d6000fd5b505050506040513d601f19601f82011682018060405250810190610368919061155b565b8152602001826001600160a01b031663313ce5676040518163ffffffff1660e01b815260040160206040518083038186803b1580156103a657600080fd5b505afa1580156103ba573d6000803e3d6000fd5b505050506040513d601f19601f820116820180604052508101906103de9190611574565b60ff168152602001826001600160a01b03168152602001826001600160a01b03166395d89b416040518163ffffffff1660e01b815260040160006040518083038186803b15801561042e57600080fd5b505afa158015610442573d6000803e3d6000fd5b505050506040513d6000823e601f3d908101601f1916820160405261046a91908101906115ad565b9052949350505050565b6104ad6040518060c001604052806000815260200160008152602001600081526020016000815260200160008152602001600081525090565b60405163cf4ca5e160e01b81526001600160a01b038381166004830152859185916000919084169063cf4ca5e19060240160606040518083038186803b1580156104f657600080fd5b505afa15801561050a573d6000803e3d6000fd5b505050506040513d601f19601f8201168201806040525081019061052e91906116f7565b6000015161ffff16826001600160a01b0316637d36a4106040518163ffffffff1660e01b815260040160206040518083038186803b15801561056f57600080fd5b505afa158015610583573d6000803e3d6000fd5b505050506040513d601f19601f820116820180604052508101906105a79190611713565b61ffff16146105b7576000610635565b60405163cf4ca5e160e01b81526001600160a01b03868116600483015284169063cf4ca5e19060240160606040518083038186803b1580156105f857600080fd5b505afa15801561060c573d6000803e3d6000fd5b505050506040513d601f19601f8201168201806040525081019061063091906116f7565b602001515b604051631ac7079760e01b81526001600160a01b0387811660048301526001600160781b03929092169250600091851690631ac707979060240160606040518083038186803b15801561068757600080fd5b505afa15801561069b573d6000803e3d6000fd5b505050506040513d601f19601f820116820180604052508101906106bf91906116f7565b6000015161ffff16836001600160a01b0316637d36a4106040518163ffffffff1660e01b815260040160206040518083038186803b15801561070057600080fd5b505afa158015610714573d6000803e3d6000fd5b505050506040513d601f19601f820116820180604052508101906107389190611713565b61ffff16146107485760006107c6565b604051631ac7079760e01b81526001600160a01b038781166004830152851690631ac707979060240160606040518083038186803b15801561078957600080fd5b505afa15801561079d573d6000803e3d6000fd5b505050506040513d601f19601f820116820180604052508101906107c191906116f7565b602001515b6001600160781b031690506040518060c00160405280838152602001828152602001856001600160a01b03166370a08231896040518263ffffffff1660e01b815260040161082391906001600160a01b0391909116815260200190565b60206040518083038186803b15801561083b57600080fd5b505afa15801561084f573d6000803e3d6000fd5b505050506040513d601f19601f82011682018060405250810190610873919061155b565b81526040516336d9816d60e11b81526001600160a01b038981166004830152602090920191871690636db302da9060240160206040518083038186803b1580156108bc57600080fd5b505afa1580156108d0573d6000803e3d6000fd5b505050506040513d601f19601f820116820180604052508101906108f4919061155b565b81526040516307ef385d60e21b81526001600160a01b038981166004830152602090920191871690631fbce1749060240160206040518083038186803b15801561093d57600080fd5b505afa158015610951573d6000803e3d6000fd5b505050506040513d601f19601f82011682018060405250810190610975919061155b565b8152602001856001600160a01b03166318160ddd6040518163ffffffff1660e01b815260040160206040518083038186803b1580156109b357600080fd5b505afa1580156109c7573d6000803e3d6000fd5b505050506040513d601f19601f820116820180604052508101906109eb919061155b565b905298975050505050505050565b6040805160a08101825260008082526020820181905291810182905260608101829052608081019190915260008290506000816001600160a01b031663a3b1b6ec6040518163ffffffff1660e01b815260040160806040518083038186803b158015610a6457600080fd5b505afa158015610a78573d6000803e3d6000fd5b505050506040513d601f19601f82011682018060405250810190610a9c919061172e565b90506040518060a0016040528082604001516001600160a01b0316815260200182600001516001600160a01b0316815260200182602001516001600160a01b03168152602001836001600160a01b0316635aef7de66040518163ffffffff1660e01b815260040160206040518083038186803b158015610b1b57600080fd5b505afa158015610b2f573d6000803e3d6000fd5b505050506040513d601f19601f82011682018060405250810190610b53919061153e565b6001600160a01b0316815260200182606001516001600160a01b031681525092505050919050565b6040805160a081018252600080825260208201819052918101829052606081018290526080810191909152610bae611182565b610be76040518060c001604052806000815260200160008152602001600081526020016000815260200160008152602001600081525090565b610bef6111c8565b610bf8866109f9565b9350610c078460200151610108565b9250610c1c8460000151856040015187610474565b9150610c2b8460400151610c36565b905092959194509250565b610c3e6111c8565b60008290506040518060e00160405280826001600160a01b03166333d052ff6040518163ffffffff1660e01b815260040160206040518083038186803b158015610c8757600080fd5b505afa158015610c9b573d6000803e3d6000fd5b505050506040513d601f19601f82011682018060405250810190610cbf919061155b565b8152602001826001600160a01b031663a6e16c4d6040518163ffffffff1660e01b815260040160206040518083038186803b158015610cfd57600080fd5b505afa158015610d11573d6000803e3d6000fd5b505050506040513d601f19601f82011682018060405250810190610d35919061155b565b81526020016040518060600160405280846001600160a01b031663bd4fbbc76040518163ffffffff1660e01b815260040160206040518083038186803b158015610d7e57600080fd5b505afa158015610d92573d6000803e3d6000fd5b505050506040513d601f19601f82011682018060405250810190610db6919061155b565b8152602001846001600160a01b031663283b0ea06040518163ffffffff1660e01b815260040160206040518083038186803b158015610df457600080fd5b505afa158015610e08573d6000803e3d6000fd5b505050506040513d601f19601f82011682018060405250810190610e2c919061155b565b8152602001846001600160a01b031663283b0ea06040518163ffffffff1660e01b815260040160206040518083038186803b158015610e6a57600080fd5b505afa158015610e7e573d6000803e3d6000fd5b505050506040513d601f19601f82011682018060405250810190610ea2919061155b565b856001600160a01b031663bd4fbbc76040518163ffffffff1660e01b815260040160206040518083038186803b158015610edb57600080fd5b505afa158015610eef573d6000803e3d6000fd5b505050506040513d601f19601f82011682018060405250810190610f13919061155b565b866001600160a01b031663cfe8a73b6040518163ffffffff1660e01b815260040160206040518083038186803b158015610f4c57600080fd5b505afa158015610f60573d6000803e3d6000fd5b505050506040513d601f19601f82011682018060405250810190610f84919061155b565b610f8e91906117b3565b610f9891906117b3565b8152508152602001826001600160a01b031663cfe8a73b6040518163ffffffff1660e01b815260040160206040518083038186803b158015610fd957600080fd5b505afa158015610fed573d6000803e3d6000fd5b505050506040513d601f19601f82011682018060405250810190611011919061155b565b8152602001826001600160a01b0316637e2d4a636040518163ffffffff1660e01b815260040160206040518083038186803b15801561104f57600080fd5b505afa158015611063573d6000803e3d6000fd5b505050506040513d601f19601f8201168201806040525081019061108791906117d8565b15158152602001826001600160a01b031663487c316a6040518163ffffffff1660e01b815260040160206040518083038186803b1580156110c757600080fd5b505afa1580156110db573d6000803e3d6000fd5b505050506040513d601f19601f820116820180604052508101906110ff91906117d8565b15158152602001826001600160a01b031663e262ee156040518163ffffffff1660e01b815260040160206040518083038186803b15801561113f57600080fd5b505afa158015611153573d6000803e3d6000fd5b505050506040513d601f19601f8201168201806040525081019061117791906117d8565b151590529392505050565b6040518060e00160405280600081526020016000815260200160008152602001600081526020016000815260200160006001600160a01b03168152602001606081525090565b6040518060e0016040528060008152602001600081526020016111e961120b565b8152600060208201819052604082018190526060820181905260809091015290565b60405180606001604052806003906020820280368337509192915050565b6001600160a01b038116811461123e57600080fd5b50565b60006020828403121561125357600080fd5b813561125e81611229565b9392505050565b60005b83811015611280578181015183820152602001611268565b8381111561128f576000848401525b50505050565b805182526020810151602083015260408101516040830152606081015160608301526080810151608083015260018060a01b0360a08201511660a0830152600060c082015160e060c085015280518060e08601526101006112fc8282880160208601611265565b80601f19601f840116870101935050505092915050565b60208152600061125e6020830184611295565b60008060006060848603121561133b57600080fd5b833561134681611229565b9250602084013561135681611229565b9150604084013561136681611229565b809150509250925092565b60c081016113b48284805182526020810151602083015260408101516040830152606081015160608301526080810151608083015260a081015160a08301525050565b92915050565b80516001600160a01b03908116835260208083015182169084015260408083015182169084015260608083015182169084015260809182015116910152565b60a081016113b482846113ba565b6000806040838503121561141a57600080fd5b823561142581611229565b9150602083013561143581611229565b809150509250929050565b805182526020808201518184015260408201516040840160005b60038110156114775782518252918301919083019060010161145a565b50505050606081015160a0830152608081015180151560c08401525060a081015180151560e08401525060c0015115156101009190910152565b60006102a06114c083886113ba565b8060a08401526114d281840187611295565b855160c0850152602086015160e085015260408601516101008501526060860151610120850152608086015161014085015260a086015161016085015291506115189050565b611526610180830184611440565b95945050505050565b61012081016113b48284611440565b60006020828403121561155057600080fd5b815161125e81611229565b60006020828403121561156d57600080fd5b5051919050565b60006020828403121561158657600080fd5b815160ff8116811461125e57600080fd5b634e487b7160e01b600052604160045260246000fd5b6000602082840312156115bf57600080fd5b815167ffffffffffffffff808211156115d757600080fd5b818401915084601f8301126115eb57600080fd5b8151818111156115fd576115fd611597565b604051601f8201601f19908116603f0116810190838211818310171561162557611625611597565b8160405282815287602084870101111561163e57600080fd5b61164f836020830160208801611265565b979650505050505050565b805161ffff8116811461166c57600080fd5b919050565b80516001600160781b038116811461166c57600080fd5b60006060828403121561169a57600080fd5b6040516060810181811067ffffffffffffffff821117156116bd576116bd611597565b6040529050806116cc8361165a565b81526116da60208401611671565b60208201526116eb60408401611671565b60408201525092915050565b60006060828403121561170957600080fd5b61125e8383611688565b60006020828403121561172557600080fd5b61125e8261165a565b60006080828403121561174057600080fd5b6040516080810181811067ffffffffffffffff8211171561176357611763611597565b604052825161177181611229565b8152602083015161178181611229565b6020820152604083015161179481611229565b604082015260608301516117a781611229565b60608201529392505050565b6000828210156117d357634e487b7160e01b600052601160045260246000fd5b500390565b6000602082840312156117ea57600080fd5b8151801515811461125e57600080fdfea2646970667358221220e8acb87fe41df118c9c379b0c9f43dc58ec59529c9d7a36ede60027a43f2246a64736f6c63430008090033",
  "devdoc": {
    "kind": "dev",
    "methods": {
      "getAccountingData(address)": {
        "params": {
          "_accountingAddress": "address of Accounting module"
        }
      },
      "getLifecycleData(address)": {
        "params": {
          "_lifecycleAddress": "address of Lifecycle module"
        }
      },
      "getPoolModules(address)": {
        "params": {
          "_registryAddress": "address of Registry module"
        }
      },
      "getStakingData(address,address,address)": {
        "params": {
          "_lifecycleAddress": "address of Staking module",
          "_stakingAddress": "address of Staking module",
          "_userAddress": "address of user"
        }
      }
    },
    "version": 1
  },
  "userdoc": {
    "kind": "user",
    "methods": {
      "getAccountingData(address)": {
        "notice": "Returns usable data from Accounting module"
      },
      "getLifecycleData(address)": {
        "notice": "Returns usable data from Lifecycle module"
      },
      "getPoolData(address,address)": {
        "notice": "Returns all pool-related and user-based data"
      },
      "getPoolModules(address)": {
        "notice": "Returns addresses of modules"
      },
      "getStakingData(address,address,address)": {
        "notice": "Returns usable data from Staking module"
      }
    },
    "notice": "Contract for easy fetching pools data",
    "version": 1
  },
  "storageLayout": {
    "storage": [],
    "types": null
  }
}